{
	"ArrayLab.sol": {
		"ArrayLab": {
			"abi": [
				{
					"inputs": [],
					"stateMutability": "nonpayable",
					"type": "constructor"
				},
				{
					"inputs": [
						{
							"internalType": "uint256",
							"name": "",
							"type": "uint256"
						}
					],
					"name": "ManupArray",
					"outputs": [
						{
							"internalType": "uint256",
							"name": "",
							"type": "uint256"
						}
					],
					"stateMutability": "view",
					"type": "function"
				},
				{
					"inputs": [],
					"name": "PopValue",
					"outputs": [],
					"stateMutability": "nonpayable",
					"type": "function"
				},
				{
					"inputs": [],
					"name": "Sort",
					"outputs": [],
					"stateMutability": "nonpayable",
					"type": "function"
				},
				{
					"inputs": [
						{
							"internalType": "uint256",
							"name": "_index",
							"type": "uint256"
						}
					],
					"name": "getData",
					"outputs": [
						{
							"internalType": "uint256",
							"name": "",
							"type": "uint256"
						}
					],
					"stateMutability": "view",
					"type": "function"
				},
				{
					"inputs": [
						{
							"internalType": "uint256",
							"name": "input",
							"type": "uint256"
						}
					],
					"name": "setData",
					"outputs": [],
					"stateMutability": "nonpayable",
					"type": "function"
				}
			],
			"devdoc": {
				"kind": "dev",
				"methods": {},
				"version": 1
			},
			"evm": {
				"assembly": "    /* \"ArrayLab.sol\":850:1405  contract ArrayLab {... */\n  mstore(0x40, 0x80)\n    /* \"ArrayLab.sol\":904:966  constructor(){... */\n  callvalue\n  dup1\n  iszero\n  tag_1\n  jumpi\n  0x00\n  dup1\n  revert\ntag_1:\n  pop\n    /* \"ArrayLab.sol\":927:959  ManupArray=[11,2,31,42,5,1,7,18] */\n  mload(0x40)\n  dup1\n  0x0100\n  add\n  0x40\n  mstore\n  dup1\n    /* \"ArrayLab.sol\":939:941  11 */\n  0x0b\n    /* \"ArrayLab.sol\":927:959  ManupArray=[11,2,31,42,5,1,7,18] */\n  0xff\n  and\n  dup2\n  mstore\n  0x20\n  add\n    /* \"ArrayLab.sol\":942:943  2 */\n  0x02\n    /* \"ArrayLab.sol\":927:959  ManupArray=[11,2,31,42,5,1,7,18] */\n  0xff\n  and\n  dup2\n  mstore\n  0x20\n  add\n    /* \"ArrayLab.sol\":944:946  31 */\n  0x1f\n    /* \"ArrayLab.sol\":927:959  ManupArray=[11,2,31,42,5,1,7,18] */\n  0xff\n  and\n  dup2\n  mstore\n  0x20\n  add\n    /* \"ArrayLab.sol\":947:949  42 */\n  0x2a\n    /* \"ArrayLab.sol\":927:959  ManupArray=[11,2,31,42,5,1,7,18] */\n  0xff\n  and\n  dup2\n  mstore\n  0x20\n  add\n    /* \"ArrayLab.sol\":950:951  5 */\n  0x05\n    /* \"ArrayLab.sol\":927:959  ManupArray=[11,2,31,42,5,1,7,18] */\n  0xff\n  and\n  dup2\n  mstore\n  0x20\n  add\n    /* \"ArrayLab.sol\":952:953  1 */\n  0x01\n    /* \"ArrayLab.sol\":927:959  ManupArray=[11,2,31,42,5,1,7,18] */\n  0xff\n  and\n  dup2\n  mstore\n  0x20\n  add\n    /* \"ArrayLab.sol\":954:955  7 */\n  0x07\n    /* \"ArrayLab.sol\":927:959  ManupArray=[11,2,31,42,5,1,7,18] */\n  0xff\n  and\n  dup2\n  mstore\n  0x20\n  add\n    /* \"ArrayLab.sol\":956:958  18 */\n  0x12\n    /* \"ArrayLab.sol\":927:959  ManupArray=[11,2,31,42,5,1,7,18] */\n  0xff\n  and\n  dup2\n  mstore\n  pop\n    /* \"ArrayLab.sol\":927:937  ManupArray */\n  0x00\n    /* \"ArrayLab.sol\":927:959  ManupArray=[11,2,31,42,5,1,7,18] */\n  swap1\n  0x08\n  tag_4\n  swap3\n  swap2\n  swap1\n  tag_5\n  jump\t// in\ntag_4:\n  pop\n    /* \"ArrayLab.sol\":850:1405  contract ArrayLab {... */\n  jump(tag_6)\ntag_5:\n  dup3\n  dup1\n  sload\n  dup3\n  dup3\n  sstore\n  swap1\n  0x00\n  mstore\n  keccak256(0x00, 0x20)\n  swap1\n  dup2\n  add\n  swap3\n  dup3\n  iszero\n  tag_7\n  jumpi\n  swap2\n  0x20\n  mul\n  dup3\n  add\ntag_8:\n  dup3\n  dup2\n  gt\n  iszero\n  tag_9\n  jumpi\n  dup3\n  mload\n  dup3\n  swap1\n  0xff\n  and\n  swap1\n  sstore\n  swap2\n  0x20\n  add\n  swap2\n  swap1\n  0x01\n  add\n  swap1\n  jump(tag_8)\ntag_9:\ntag_7:\n  pop\n  swap1\n  pop\n  tag_10\n  swap2\n  swap1\n  tag_11\n  jump\t// in\ntag_10:\n  pop\n  swap1\n  jump\t// out\ntag_11:\ntag_12:\n  dup1\n  dup3\n  gt\n  iszero\n  tag_13\n  jumpi\n  0x00\n  dup2\n  0x00\n  swap1\n  sstore\n  pop\n  0x01\n  add\n  jump(tag_12)\ntag_13:\n  pop\n  swap1\n  jump\t// out\ntag_6:\n  dataSize(sub_0)\n  dup1\n  dataOffset(sub_0)\n  0x00\n  codecopy\n  0x00\n  return\nstop\n\nsub_0: assembly {\n        /* \"ArrayLab.sol\":850:1405  contract ArrayLab {... */\n      mstore(0x40, 0x80)\n      callvalue\n      dup1\n      iszero\n      tag_1\n      jumpi\n      0x00\n      dup1\n      revert\n    tag_1:\n      pop\n      jumpi(tag_2, lt(calldatasize, 0x04))\n      shr(0xe0, calldataload(0x00))\n      dup1\n      0x0178fe3f\n      eq\n      tag_3\n      jumpi\n      dup1\n      0x2815741c\n      eq\n      tag_4\n      jumpi\n      dup1\n      0x5b4b73a9\n      eq\n      tag_5\n      jumpi\n      dup1\n      0x5d9ca85b\n      eq\n      tag_6\n      jumpi\n      dup1\n      0xd828a884\n      eq\n      tag_7\n      jumpi\n    tag_2:\n      0x00\n      dup1\n      revert\n        /* \"ArrayLab.sol\":1075:1239  function getData(uint _index) public view returns (uint){... */\n    tag_3:\n      tag_8\n      0x04\n      dup1\n      calldatasize\n      sub\n      dup2\n      add\n      swap1\n      tag_9\n      swap2\n      swap1\n      tag_10\n      jump\t// in\n    tag_9:\n      tag_11\n      jump\t// in\n    tag_8:\n      mload(0x40)\n      tag_12\n      swap2\n      swap1\n      tag_13\n      jump\t// in\n    tag_12:\n      mload(0x40)\n      dup1\n      swap2\n      sub\n      swap1\n      return\n        /* \"ArrayLab.sol\":1332:1403  function Sort() public {... */\n    tag_4:\n      tag_14\n      tag_15\n      jump\t// in\n    tag_14:\n      stop\n        /* \"ArrayLab.sol\":974:1069  function setData(uint input) public {... */\n    tag_5:\n      tag_16\n      0x04\n      dup1\n      calldatasize\n      sub\n      dup2\n      add\n      swap1\n      tag_17\n      swap2\n      swap1\n      tag_10\n      jump\t// in\n    tag_17:\n      tag_18\n      jump\t// in\n    tag_16:\n      stop\n        /* \"ArrayLab.sol\":874:898  uint[] public ManupArray */\n    tag_6:\n      tag_19\n      0x04\n      dup1\n      calldatasize\n      sub\n      dup2\n      add\n      swap1\n      tag_20\n      swap2\n      swap1\n      tag_10\n      jump\t// in\n    tag_20:\n      tag_21\n      jump\t// in\n    tag_19:\n      mload(0x40)\n      tag_22\n      swap2\n      swap1\n      tag_13\n      jump\t// in\n    tag_22:\n      mload(0x40)\n      dup1\n      swap2\n      sub\n      swap1\n      return\n        /* \"ArrayLab.sol\":1245:1326  function PopValue() public {... */\n    tag_7:\n      tag_23\n      tag_24\n      jump\t// in\n    tag_23:\n      stop\n        /* \"ArrayLab.sol\":1075:1239  function getData(uint _index) public view returns (uint){... */\n    tag_11:\n        /* \"ArrayLab.sol\":1126:1130  uint */\n      0x00\n        /* \"ArrayLab.sol\":1156:1166  ManupArray */\n      dup1\n        /* \"ArrayLab.sol\":1156:1173  ManupArray.length */\n      dup1\n      sload\n      swap1\n      pop\n        /* \"ArrayLab.sol\":1149:1155  _index */\n      dup3\n        /* \"ArrayLab.sol\":1149:1173  _index<ManupArray.length */\n      lt\n        /* \"ArrayLab.sol\":1141:1197  require(_index<ManupArray.length, \"_index is not there\") */\n      tag_26\n      jumpi\n      mload(0x40)\n      0x08c379a000000000000000000000000000000000000000000000000000000000\n      dup2\n      mstore\n      0x04\n      add\n      tag_27\n      swap1\n      tag_28\n      jump\t// in\n    tag_27:\n      mload(0x40)\n      dup1\n      swap2\n      sub\n      swap1\n      revert\n    tag_26:\n        /* \"ArrayLab.sol\":1214:1224  ManupArray */\n      0x00\n        /* \"ArrayLab.sol\":1225:1231  _index */\n      dup3\n        /* \"ArrayLab.sol\":1214:1232  ManupArray[_index] */\n      dup2\n      sload\n      dup2\n      lt\n      tag_29\n      jumpi\n      mstore(0x00, 0x4e487b7100000000000000000000000000000000000000000000000000000000)\n      mstore(0x04, 0x32)\n      revert(0x00, 0x24)\n    tag_29:\n      swap1\n      0x00\n      mstore\n      keccak256(0x00, 0x20)\n      add\n      sload\n        /* \"ArrayLab.sol\":1207:1232  return ManupArray[_index] */\n      swap1\n      pop\n        /* \"ArrayLab.sol\":1075:1239  function getData(uint _index) public view returns (uint){... */\n      swap2\n      swap1\n      pop\n      jump\t// out\n        /* \"ArrayLab.sol\":1332:1403  function Sort() public {... */\n    tag_15:\n        /* \"ArrayLab.sol\":1365:1396  ArrayTweaks.Sorting(ManupArray) */\n      tag_32\n        /* \"ArrayLab.sol\":1385:1395  ManupArray */\n      0x00\n        /* \"ArrayLab.sol\":1365:1396  ArrayTweaks.Sorting(ManupArray) */\n      dup1\n      sload\n      dup1\n      0x20\n      mul\n      0x20\n      add\n      mload(0x40)\n      swap1\n      dup2\n      add\n      0x40\n      mstore\n      dup1\n      swap3\n      swap2\n      swap1\n      dup2\n      dup2\n      mstore\n      0x20\n      add\n      dup3\n      dup1\n      sload\n      dup1\n      iszero\n      tag_33\n      jumpi\n      0x20\n      mul\n      dup3\n      add\n      swap2\n      swap1\n      0x00\n      mstore\n      keccak256(0x00, 0x20)\n      swap1\n    tag_34:\n      dup2\n      sload\n      dup2\n      mstore\n      0x20\n      add\n      swap1\n      0x01\n      add\n      swap1\n      dup1\n      dup4\n      gt\n      tag_34\n      jumpi\n    tag_33:\n      pop\n      pop\n      pop\n      pop\n      pop\n        /* \"ArrayLab.sol\":1365:1384  ArrayTweaks.Sorting */\n      tag_35\n        /* \"ArrayLab.sol\":1365:1396  ArrayTweaks.Sorting(ManupArray) */\n      jump\t// in\n    tag_32:\n        /* \"ArrayLab.sol\":1332:1403  function Sort() public {... */\n      jump\t// out\n        /* \"ArrayLab.sol\":974:1069  function setData(uint input) public {... */\n    tag_18:\n        /* \"ArrayLab.sol\":1020:1062  ArrayTweaks.PushToArray(ManupArray,input ) */\n      tag_37\n        /* \"ArrayLab.sol\":1044:1054  ManupArray */\n      0x00\n        /* \"ArrayLab.sol\":1055:1060  input */\n      dup3\n        /* \"ArrayLab.sol\":1020:1043  ArrayTweaks.PushToArray */\n      tag_38\n        /* \"ArrayLab.sol\":1020:1062  ArrayTweaks.PushToArray(ManupArray,input ) */\n      jump\t// in\n    tag_37:\n        /* \"ArrayLab.sol\":974:1069  function setData(uint input) public {... */\n      pop\n      jump\t// out\n        /* \"ArrayLab.sol\":874:898  uint[] public ManupArray */\n    tag_21:\n      0x00\n      dup2\n      dup2\n      sload\n      dup2\n      lt\n      tag_39\n      jumpi\n      0x00\n      dup1\n      revert\n    tag_39:\n      swap1\n      0x00\n      mstore\n      keccak256(0x00, 0x20)\n      add\n      0x00\n      swap2\n      pop\n      swap1\n      pop\n      sload\n      dup2\n      jump\t// out\n        /* \"ArrayLab.sol\":1245:1326  function PopValue() public {... */\n    tag_24:\n        /* \"ArrayLab.sol\":1282:1318  ArrayTweaks.PopFromArray(ManupArray) */\n      tag_42\n        /* \"ArrayLab.sol\":1307:1317  ManupArray */\n      0x00\n        /* \"ArrayLab.sol\":1282:1306  ArrayTweaks.PopFromArray */\n      tag_43\n        /* \"ArrayLab.sol\":1282:1318  ArrayTweaks.PopFromArray(ManupArray) */\n      jump\t// in\n    tag_42:\n      pop\n        /* \"ArrayLab.sol\":1245:1326  function PopValue() public {... */\n      jump\t// out\n        /* \"ArrayLab.sol\":463:799  function Sorting(uint[] memory arr) internal pure  {... */\n    tag_35:\n        /* \"ArrayLab.sol\":524:534  uint input */\n      0x00\n        /* \"ArrayLab.sol\":537:540  arr */\n      dup2\n        /* \"ArrayLab.sol\":537:547  arr.length */\n      mload\n        /* \"ArrayLab.sol\":524:547  uint input = arr.length */\n      swap1\n      pop\n        /* \"ArrayLab.sol\":563:569  uint i */\n      0x00\n        /* \"ArrayLab.sol\":558:793  for (uint i = 0; i < input -1; i++){... */\n    tag_45:\n        /* \"ArrayLab.sol\":586:587  1 */\n      0x01\n        /* \"ArrayLab.sol\":579:584  input */\n      dup3\n        /* \"ArrayLab.sol\":579:587  input -1 */\n      tag_48\n      swap2\n      swap1\n      tag_49\n      jump\t// in\n    tag_48:\n        /* \"ArrayLab.sol\":575:576  i */\n      dup2\n        /* \"ArrayLab.sol\":575:587  i < input -1 */\n      lt\n        /* \"ArrayLab.sol\":558:793  for (uint i = 0; i < input -1; i++){... */\n      iszero\n      tag_46\n      jumpi\n        /* \"ArrayLab.sol\":612:618  uint j */\n      0x00\n        /* \"ArrayLab.sol\":607:783  for (uint j = 0; j < input - i; j++){... */\n    tag_50:\n        /* \"ArrayLab.sol\":636:637  i */\n      dup2\n        /* \"ArrayLab.sol\":628:633  input */\n      dup4\n        /* \"ArrayLab.sol\":628:637  input - i */\n      tag_53\n      swap2\n      swap1\n      tag_49\n      jump\t// in\n    tag_53:\n        /* \"ArrayLab.sol\":624:625  j */\n      dup2\n        /* \"ArrayLab.sol\":624:637  j < input - i */\n      lt\n        /* \"ArrayLab.sol\":607:783  for (uint j = 0; j < input - i; j++){... */\n      iszero\n      tag_51\n      jumpi\n        /* \"ArrayLab.sol\":674:677  arr */\n      dup4\n        /* \"ArrayLab.sol\":682:683  1 */\n      0x01\n        /* \"ArrayLab.sol\":678:679  j */\n      dup3\n        /* \"ArrayLab.sol\":678:683  j + 1 */\n      tag_54\n      swap2\n      swap1\n      tag_55\n      jump\t// in\n    tag_54:\n        /* \"ArrayLab.sol\":674:684  arr[j + 1] */\n      dup2\n      mload\n      dup2\n      lt\n      tag_56\n      jumpi\n      mstore(0x00, 0x4e487b7100000000000000000000000000000000000000000000000000000000)\n      mstore(0x04, 0x32)\n      revert(0x00, 0x24)\n    tag_56:\n      0x20\n      mul\n      0x20\n      add\n      add\n      mload\n        /* \"ArrayLab.sol\":665:668  arr */\n      dup5\n        /* \"ArrayLab.sol\":669:670  j */\n      dup3\n        /* \"ArrayLab.sol\":665:671  arr[j] */\n      dup2\n      mload\n      dup2\n      lt\n      tag_57\n      jumpi\n      mstore(0x00, 0x4e487b7100000000000000000000000000000000000000000000000000000000)\n      mstore(0x04, 0x32)\n      revert(0x00, 0x24)\n    tag_57:\n      0x20\n      mul\n      0x20\n      add\n      add\n      mload\n        /* \"ArrayLab.sol\":665:684  arr[j] > arr[j + 1] */\n      gt\n        /* \"ArrayLab.sol\":661:769  if (arr[j] > arr[j + 1]){... */\n      iszero\n      tag_58\n      jumpi\n        /* \"ArrayLab.sol\":731:734  arr */\n      dup4\n        /* \"ArrayLab.sol\":739:740  1 */\n      0x01\n        /* \"ArrayLab.sol\":735:736  j */\n      dup3\n        /* \"ArrayLab.sol\":735:740  j + 1 */\n      tag_59\n      swap2\n      swap1\n      tag_55\n      jump\t// in\n    tag_59:\n        /* \"ArrayLab.sol\":731:741  arr[j + 1] */\n      dup2\n      mload\n      dup2\n      lt\n      tag_60\n      jumpi\n      mstore(0x00, 0x4e487b7100000000000000000000000000000000000000000000000000000000)\n      mstore(0x04, 0x32)\n      revert(0x00, 0x24)\n    tag_60:\n      0x20\n      mul\n      0x20\n      add\n      add\n      mload\n        /* \"ArrayLab.sol\":743:746  arr */\n      dup5\n        /* \"ArrayLab.sol\":747:748  j */\n      dup3\n        /* \"ArrayLab.sol\":743:749  arr[j] */\n      dup2\n      mload\n      dup2\n      lt\n      tag_61\n      jumpi\n      mstore(0x00, 0x4e487b7100000000000000000000000000000000000000000000000000000000)\n      mstore(0x04, 0x32)\n      revert(0x00, 0x24)\n    tag_61:\n      0x20\n      mul\n      0x20\n      add\n      add\n      mload\n        /* \"ArrayLab.sol\":708:711  arr */\n      dup6\n        /* \"ArrayLab.sol\":712:713  j */\n      dup4\n        /* \"ArrayLab.sol\":708:714  arr[j] */\n      dup2\n      mload\n      dup2\n      lt\n      tag_62\n      jumpi\n      mstore(0x00, 0x4e487b7100000000000000000000000000000000000000000000000000000000)\n      mstore(0x04, 0x32)\n      revert(0x00, 0x24)\n    tag_62:\n      0x20\n      mul\n      0x20\n      add\n      add\n        /* \"ArrayLab.sol\":716:719  arr */\n      dup7\n        /* \"ArrayLab.sol\":724:725  1 */\n      0x01\n        /* \"ArrayLab.sol\":720:721  j */\n      dup6\n        /* \"ArrayLab.sol\":720:725  j + 1 */\n      tag_63\n      swap2\n      swap1\n      tag_55\n      jump\t// in\n    tag_63:\n        /* \"ArrayLab.sol\":716:726  arr[j + 1] */\n      dup2\n      mload\n      dup2\n      lt\n      tag_64\n      jumpi\n      mstore(0x00, 0x4e487b7100000000000000000000000000000000000000000000000000000000)\n      mstore(0x04, 0x32)\n      revert(0x00, 0x24)\n    tag_64:\n      0x20\n      mul\n      0x20\n      add\n      add\n        /* \"ArrayLab.sol\":707:750  (arr[j], arr[j + 1]) = (arr[j + 1], arr[j]) */\n      dup3\n      dup2\n      mstore\n      pop\n      dup3\n      dup2\n      mstore\n      pop\n      pop\n      pop\n        /* \"ArrayLab.sol\":661:769  if (arr[j] > arr[j + 1]){... */\n    tag_58:\n        /* \"ArrayLab.sol\":639:642  j++ */\n      dup1\n      dup1\n      tag_65\n      swap1\n      tag_66\n      jump\t// in\n    tag_65:\n      swap2\n      pop\n      pop\n        /* \"ArrayLab.sol\":607:783  for (uint j = 0; j < input - i; j++){... */\n      jump(tag_50)\n    tag_51:\n      pop\n        /* \"ArrayLab.sol\":589:592  i++ */\n      dup1\n      dup1\n      tag_67\n      swap1\n      tag_66\n      jump\t// in\n    tag_67:\n      swap2\n      pop\n      pop\n        /* \"ArrayLab.sol\":558:793  for (uint i = 0; i < input -1; i++){... */\n      jump(tag_45)\n    tag_46:\n      pop\n        /* \"ArrayLab.sol\":463:799  function Sorting(uint[] memory arr) internal pure  {... */\n      pop\n      pop\n      jump\t// out\n        /* \"ArrayLab.sol\":84:187  function PushToArray(uint[] storage PushArr, uint input) internal  {... */\n    tag_38:\n        /* \"ArrayLab.sol\":161:168  PushArr */\n      dup2\n        /* \"ArrayLab.sol\":174:179  input */\n      dup2\n        /* \"ArrayLab.sol\":161:180  PushArr.push(input) */\n      swap1\n      dup1\n      0x01\n      dup2\n      sload\n      add\n      dup1\n      dup3\n      sstore\n      dup1\n      swap2\n      pop\n      pop\n      0x01\n      swap1\n      sub\n      swap1\n      0x00\n      mstore\n      keccak256(0x00, 0x20)\n      add\n      0x00\n      swap1\n      swap2\n      swap1\n      swap2\n      swap1\n      swap2\n      pop\n      sstore\n        /* \"ArrayLab.sol\":84:187  function PushToArray(uint[] storage PushArr, uint input) internal  {... */\n      pop\n      pop\n      jump\t// out\n        /* \"ArrayLab.sol\":193:457  function PopFromArray(uint[] storage PopArr) internal returns (uint) {... */\n    tag_43:\n        /* \"ArrayLab.sol\":256:260  uint */\n      0x00\n        /* \"ArrayLab.sol\":296:297  0 */\n      dup1\n        /* \"ArrayLab.sol\":280:286  PopArr */\n      dup3\n        /* \"ArrayLab.sol\":280:293  PopArr.length */\n      dup1\n      sload\n      swap1\n      pop\n        /* \"ArrayLab.sol\":280:297  PopArr.length > 0 */\n      gt\n        /* \"ArrayLab.sol\":272:316  require(PopArr.length > 0, \"Array is empty\") */\n      tag_71\n      jumpi\n      mload(0x40)\n      0x08c379a000000000000000000000000000000000000000000000000000000000\n      dup2\n      mstore\n      0x04\n      add\n      tag_72\n      swap1\n      tag_73\n      jump\t// in\n    tag_72:\n      mload(0x40)\n      dup1\n      swap2\n      sub\n      swap1\n      revert\n    tag_71:\n        /* \"ArrayLab.sol\":327:340  uint EndIndex */\n      0x00\n        /* \"ArrayLab.sol\":359:360  1 */\n      0x01\n        /* \"ArrayLab.sol\":343:349  PopArr */\n      dup4\n        /* \"ArrayLab.sol\":343:356  PopArr.length */\n      dup1\n      sload\n      swap1\n      pop\n        /* \"ArrayLab.sol\":343:360  PopArr.length - 1 */\n      tag_74\n      swap2\n      swap1\n      tag_49\n      jump\t// in\n    tag_74:\n        /* \"ArrayLab.sol\":327:360  uint EndIndex = PopArr.length - 1 */\n      swap1\n      pop\n        /* \"ArrayLab.sol\":370:383  uint EndValue */\n      0x00\n        /* \"ArrayLab.sol\":386:392  PopArr */\n      dup4\n        /* \"ArrayLab.sol\":393:401  EndIndex */\n      dup3\n        /* \"ArrayLab.sol\":386:402  PopArr[EndIndex] */\n      dup2\n      sload\n      dup2\n      lt\n      tag_75\n      jumpi\n      mstore(0x00, 0x4e487b7100000000000000000000000000000000000000000000000000000000)\n      mstore(0x04, 0x32)\n      revert(0x00, 0x24)\n    tag_75:\n      swap1\n      0x00\n      mstore\n      keccak256(0x00, 0x20)\n      add\n      sload\n        /* \"ArrayLab.sol\":370:402  uint EndValue = PopArr[EndIndex] */\n      swap1\n      pop\n        /* \"ArrayLab.sol\":412:418  PopArr */\n      dup4\n        /* \"ArrayLab.sol\":412:424  PopArr.pop() */\n      dup1\n      sload\n      dup1\n      tag_77\n      jumpi\n      mstore(0x00, 0x4e487b7100000000000000000000000000000000000000000000000000000000)\n      mstore(0x04, 0x31)\n      revert(0x00, 0x24)\n    tag_77:\n      0x01\n      swap1\n      sub\n      dup2\n      dup2\n      swap1\n      0x00\n      mstore\n      keccak256(0x00, 0x20)\n      add\n      0x00\n      swap1\n      sstore\n      swap1\n      sstore\n        /* \"ArrayLab.sol\":442:450  EndValue */\n      dup1\n        /* \"ArrayLab.sol\":435:450  return EndValue */\n      swap3\n      pop\n      pop\n      pop\n        /* \"ArrayLab.sol\":193:457  function PopFromArray(uint[] storage PopArr) internal returns (uint) {... */\n      swap2\n      swap1\n      pop\n      jump\t// out\n        /* \"#utility.yul\":7:146   */\n    tag_80:\n      0x00\n        /* \"#utility.yul\":91:97   */\n      dup2\n        /* \"#utility.yul\":78:98   */\n      calldataload\n        /* \"#utility.yul\":69:98   */\n      swap1\n      pop\n        /* \"#utility.yul\":107:140   */\n      tag_82\n        /* \"#utility.yul\":134:139   */\n      dup2\n        /* \"#utility.yul\":107:140   */\n      tag_83\n      jump\t// in\n    tag_82:\n        /* \"#utility.yul\":59:146   */\n      swap3\n      swap2\n      pop\n      pop\n      jump\t// out\n        /* \"#utility.yul\":152:414   */\n    tag_10:\n      0x00\n        /* \"#utility.yul\":260:262   */\n      0x20\n        /* \"#utility.yul\":248:257   */\n      dup3\n        /* \"#utility.yul\":239:246   */\n      dup5\n        /* \"#utility.yul\":235:258   */\n      sub\n        /* \"#utility.yul\":231:263   */\n      slt\n        /* \"#utility.yul\":228:230   */\n      iszero\n      tag_85\n      jumpi\n        /* \"#utility.yul\":276:277   */\n      0x00\n        /* \"#utility.yul\":273:274   */\n      dup1\n        /* \"#utility.yul\":266:278   */\n      revert\n        /* \"#utility.yul\":228:230   */\n    tag_85:\n        /* \"#utility.yul\":319:320   */\n      0x00\n        /* \"#utility.yul\":344:397   */\n      tag_86\n        /* \"#utility.yul\":389:396   */\n      dup5\n        /* \"#utility.yul\":380:386   */\n      dup3\n        /* \"#utility.yul\":369:378   */\n      dup6\n        /* \"#utility.yul\":365:387   */\n      add\n        /* \"#utility.yul\":344:397   */\n      tag_80\n      jump\t// in\n    tag_86:\n        /* \"#utility.yul\":334:397   */\n      swap2\n      pop\n        /* \"#utility.yul\":290:407   */\n      pop\n        /* \"#utility.yul\":218:414   */\n      swap3\n      swap2\n      pop\n      pop\n      jump\t// out\n        /* \"#utility.yul\":420:737   */\n    tag_87:\n      0x00\n        /* \"#utility.yul\":583:650   */\n      tag_89\n        /* \"#utility.yul\":647:649   */\n      0x13\n        /* \"#utility.yul\":642:645   */\n      dup4\n        /* \"#utility.yul\":583:650   */\n      tag_90\n      jump\t// in\n    tag_89:\n        /* \"#utility.yul\":576:650   */\n      swap2\n      pop\n        /* \"#utility.yul\":680:701   */\n      0x5f696e646578206973206e6f7420746865726500000000000000000000000000\n        /* \"#utility.yul\":676:677   */\n      0x00\n        /* \"#utility.yul\":671:674   */\n      dup4\n        /* \"#utility.yul\":667:678   */\n      add\n        /* \"#utility.yul\":660:702   */\n      mstore\n        /* \"#utility.yul\":728:730   */\n      0x20\n        /* \"#utility.yul\":723:726   */\n      dup3\n        /* \"#utility.yul\":719:731   */\n      add\n        /* \"#utility.yul\":712:731   */\n      swap1\n      pop\n        /* \"#utility.yul\":566:737   */\n      swap2\n      swap1\n      pop\n      jump\t// out\n        /* \"#utility.yul\":743:1055   */\n    tag_91:\n      0x00\n        /* \"#utility.yul\":906:973   */\n      tag_93\n        /* \"#utility.yul\":970:972   */\n      0x0e\n        /* \"#utility.yul\":965:968   */\n      dup4\n        /* \"#utility.yul\":906:973   */\n      tag_90\n      jump\t// in\n    tag_93:\n        /* \"#utility.yul\":899:973   */\n      swap2\n      pop\n        /* \"#utility.yul\":1003:1019   */\n      0x417272617920697320656d707479000000000000000000000000000000000000\n        /* \"#utility.yul\":999:1000   */\n      0x00\n        /* \"#utility.yul\":994:997   */\n      dup4\n        /* \"#utility.yul\":990:1001   */\n      add\n        /* \"#utility.yul\":983:1020   */\n      mstore\n        /* \"#utility.yul\":1046:1048   */\n      0x20\n        /* \"#utility.yul\":1041:1044   */\n      dup3\n        /* \"#utility.yul\":1037:1049   */\n      add\n        /* \"#utility.yul\":1030:1049   */\n      swap1\n      pop\n        /* \"#utility.yul\":889:1055   */\n      swap2\n      swap1\n      pop\n      jump\t// out\n        /* \"#utility.yul\":1061:1179   */\n    tag_94:\n        /* \"#utility.yul\":1148:1172   */\n      tag_96\n        /* \"#utility.yul\":1166:1171   */\n      dup2\n        /* \"#utility.yul\":1148:1172   */\n      tag_97\n      jump\t// in\n    tag_96:\n        /* \"#utility.yul\":1143:1146   */\n      dup3\n        /* \"#utility.yul\":1136:1173   */\n      mstore\n        /* \"#utility.yul\":1126:1179   */\n      pop\n      pop\n      jump\t// out\n        /* \"#utility.yul\":1185:1604   */\n    tag_28:\n      0x00\n        /* \"#utility.yul\":1389:1391   */\n      0x20\n        /* \"#utility.yul\":1378:1387   */\n      dup3\n        /* \"#utility.yul\":1374:1392   */\n      add\n        /* \"#utility.yul\":1366:1392   */\n      swap1\n      pop\n        /* \"#utility.yul\":1438:1447   */\n      dup2\n        /* \"#utility.yul\":1432:1436   */\n      dup2\n        /* \"#utility.yul\":1428:1448   */\n      sub\n        /* \"#utility.yul\":1424:1425   */\n      0x00\n        /* \"#utility.yul\":1413:1422   */\n      dup4\n        /* \"#utility.yul\":1409:1426   */\n      add\n        /* \"#utility.yul\":1402:1449   */\n      mstore\n        /* \"#utility.yul\":1466:1597   */\n      tag_99\n        /* \"#utility.yul\":1592:1596   */\n      dup2\n        /* \"#utility.yul\":1466:1597   */\n      tag_87\n      jump\t// in\n    tag_99:\n        /* \"#utility.yul\":1458:1597   */\n      swap1\n      pop\n        /* \"#utility.yul\":1356:1604   */\n      swap2\n      swap1\n      pop\n      jump\t// out\n        /* \"#utility.yul\":1610:2029   */\n    tag_73:\n      0x00\n        /* \"#utility.yul\":1814:1816   */\n      0x20\n        /* \"#utility.yul\":1803:1812   */\n      dup3\n        /* \"#utility.yul\":1799:1817   */\n      add\n        /* \"#utility.yul\":1791:1817   */\n      swap1\n      pop\n        /* \"#utility.yul\":1863:1872   */\n      dup2\n        /* \"#utility.yul\":1857:1861   */\n      dup2\n        /* \"#utility.yul\":1853:1873   */\n      sub\n        /* \"#utility.yul\":1849:1850   */\n      0x00\n        /* \"#utility.yul\":1838:1847   */\n      dup4\n        /* \"#utility.yul\":1834:1851   */\n      add\n        /* \"#utility.yul\":1827:1874   */\n      mstore\n        /* \"#utility.yul\":1891:2022   */\n      tag_101\n        /* \"#utility.yul\":2017:2021   */\n      dup2\n        /* \"#utility.yul\":1891:2022   */\n      tag_91\n      jump\t// in\n    tag_101:\n        /* \"#utility.yul\":1883:2022   */\n      swap1\n      pop\n        /* \"#utility.yul\":1781:2029   */\n      swap2\n      swap1\n      pop\n      jump\t// out\n        /* \"#utility.yul\":2035:2257   */\n    tag_13:\n      0x00\n        /* \"#utility.yul\":2166:2168   */\n      0x20\n        /* \"#utility.yul\":2155:2164   */\n      dup3\n        /* \"#utility.yul\":2151:2169   */\n      add\n        /* \"#utility.yul\":2143:2169   */\n      swap1\n      pop\n        /* \"#utility.yul\":2179:2250   */\n      tag_103\n        /* \"#utility.yul\":2247:2248   */\n      0x00\n        /* \"#utility.yul\":2236:2245   */\n      dup4\n        /* \"#utility.yul\":2232:2249   */\n      add\n        /* \"#utility.yul\":2223:2229   */\n      dup5\n        /* \"#utility.yul\":2179:2250   */\n      tag_94\n      jump\t// in\n    tag_103:\n        /* \"#utility.yul\":2133:2257   */\n      swap3\n      swap2\n      pop\n      pop\n      jump\t// out\n        /* \"#utility.yul\":2263:2432   */\n    tag_90:\n      0x00\n        /* \"#utility.yul\":2381:2387   */\n      dup3\n        /* \"#utility.yul\":2376:2379   */\n      dup3\n        /* \"#utility.yul\":2369:2388   */\n      mstore\n        /* \"#utility.yul\":2421:2425   */\n      0x20\n        /* \"#utility.yul\":2416:2419   */\n      dup3\n        /* \"#utility.yul\":2412:2426   */\n      add\n        /* \"#utility.yul\":2397:2426   */\n      swap1\n      pop\n        /* \"#utility.yul\":2359:2432   */\n      swap3\n      swap2\n      pop\n      pop\n      jump\t// out\n        /* \"#utility.yul\":2438:2743   */\n    tag_55:\n      0x00\n        /* \"#utility.yul\":2497:2517   */\n      tag_106\n        /* \"#utility.yul\":2515:2516   */\n      dup3\n        /* \"#utility.yul\":2497:2517   */\n      tag_97\n      jump\t// in\n    tag_106:\n        /* \"#utility.yul\":2492:2517   */\n      swap2\n      pop\n        /* \"#utility.yul\":2531:2551   */\n      tag_107\n        /* \"#utility.yul\":2549:2550   */\n      dup4\n        /* \"#utility.yul\":2531:2551   */\n      tag_97\n      jump\t// in\n    tag_107:\n        /* \"#utility.yul\":2526:2551   */\n      swap3\n      pop\n        /* \"#utility.yul\":2685:2686   */\n      dup3\n        /* \"#utility.yul\":2617:2683   */\n      0xffffffffffffffffffffffffffffffffffffffffffffffffffffffffffffffff\n        /* \"#utility.yul\":2613:2687   */\n      sub\n        /* \"#utility.yul\":2610:2611   */\n      dup3\n        /* \"#utility.yul\":2607:2688   */\n      gt\n        /* \"#utility.yul\":2604:2606   */\n      iszero\n      tag_108\n      jumpi\n        /* \"#utility.yul\":2691:2709   */\n      tag_109\n      tag_110\n      jump\t// in\n    tag_109:\n        /* \"#utility.yul\":2604:2606   */\n    tag_108:\n        /* \"#utility.yul\":2735:2736   */\n      dup3\n        /* \"#utility.yul\":2732:2733   */\n      dup3\n        /* \"#utility.yul\":2728:2737   */\n      add\n        /* \"#utility.yul\":2721:2737   */\n      swap1\n      pop\n        /* \"#utility.yul\":2482:2743   */\n      swap3\n      swap2\n      pop\n      pop\n      jump\t// out\n        /* \"#utility.yul\":2749:2940   */\n    tag_49:\n      0x00\n        /* \"#utility.yul\":2809:2829   */\n      tag_112\n        /* \"#utility.yul\":2827:2828   */\n      dup3\n        /* \"#utility.yul\":2809:2829   */\n      tag_97\n      jump\t// in\n    tag_112:\n        /* \"#utility.yul\":2804:2829   */\n      swap2\n      pop\n        /* \"#utility.yul\":2843:2863   */\n      tag_113\n        /* \"#utility.yul\":2861:2862   */\n      dup4\n        /* \"#utility.yul\":2843:2863   */\n      tag_97\n      jump\t// in\n    tag_113:\n        /* \"#utility.yul\":2838:2863   */\n      swap3\n      pop\n        /* \"#utility.yul\":2882:2883   */\n      dup3\n        /* \"#utility.yul\":2879:2880   */\n      dup3\n        /* \"#utility.yul\":2876:2884   */\n      lt\n        /* \"#utility.yul\":2873:2875   */\n      iszero\n      tag_114\n      jumpi\n        /* \"#utility.yul\":2887:2905   */\n      tag_115\n      tag_110\n      jump\t// in\n    tag_115:\n        /* \"#utility.yul\":2873:2875   */\n    tag_114:\n        /* \"#utility.yul\":2932:2933   */\n      dup3\n        /* \"#utility.yul\":2929:2930   */\n      dup3\n        /* \"#utility.yul\":2925:2934   */\n      sub\n        /* \"#utility.yul\":2917:2934   */\n      swap1\n      pop\n        /* \"#utility.yul\":2794:2940   */\n      swap3\n      swap2\n      pop\n      pop\n      jump\t// out\n        /* \"#utility.yul\":2946:3023   */\n    tag_97:\n      0x00\n        /* \"#utility.yul\":3012:3017   */\n      dup2\n        /* \"#utility.yul\":3001:3017   */\n      swap1\n      pop\n        /* \"#utility.yul\":2991:3023   */\n      swap2\n      swap1\n      pop\n      jump\t// out\n        /* \"#utility.yul\":3029:3262   */\n    tag_66:\n      0x00\n        /* \"#utility.yul\":3091:3115   */\n      tag_118\n        /* \"#utility.yul\":3109:3114   */\n      dup3\n        /* \"#utility.yul\":3091:3115   */\n      tag_97\n      jump\t// in\n    tag_118:\n        /* \"#utility.yul\":3082:3115   */\n      swap2\n      pop\n        /* \"#utility.yul\":3137:3203   */\n      0xffffffffffffffffffffffffffffffffffffffffffffffffffffffffffffffff\n        /* \"#utility.yul\":3130:3135   */\n      dup3\n        /* \"#utility.yul\":3127:3204   */\n      eq\n        /* \"#utility.yul\":3124:3126   */\n      iszero\n      tag_119\n      jumpi\n        /* \"#utility.yul\":3207:3225   */\n      tag_120\n      tag_110\n      jump\t// in\n    tag_120:\n        /* \"#utility.yul\":3124:3126   */\n    tag_119:\n        /* \"#utility.yul\":3254:3255   */\n      0x01\n        /* \"#utility.yul\":3247:3252   */\n      dup3\n        /* \"#utility.yul\":3243:3256   */\n      add\n        /* \"#utility.yul\":3236:3256   */\n      swap1\n      pop\n        /* \"#utility.yul\":3072:3262   */\n      swap2\n      swap1\n      pop\n      jump\t// out\n        /* \"#utility.yul\":3268:3448   */\n    tag_110:\n        /* \"#utility.yul\":3316:3393   */\n      0x4e487b7100000000000000000000000000000000000000000000000000000000\n        /* \"#utility.yul\":3313:3314   */\n      0x00\n        /* \"#utility.yul\":3306:3394   */\n      mstore\n        /* \"#utility.yul\":3413:3417   */\n      0x11\n        /* \"#utility.yul\":3410:3411   */\n      0x04\n        /* \"#utility.yul\":3403:3418   */\n      mstore\n        /* \"#utility.yul\":3437:3441   */\n      0x24\n        /* \"#utility.yul\":3434:3435   */\n      0x00\n        /* \"#utility.yul\":3427:3442   */\n      revert\n        /* \"#utility.yul\":3454:3576   */\n    tag_83:\n        /* \"#utility.yul\":3527:3551   */\n      tag_123\n        /* \"#utility.yul\":3545:3550   */\n      dup2\n        /* \"#utility.yul\":3527:3551   */\n      tag_97\n      jump\t// in\n    tag_123:\n        /* \"#utility.yul\":3520:3525   */\n      dup2\n        /* \"#utility.yul\":3517:3552   */\n      eq\n        /* \"#utility.yul\":3507:3509   */\n      tag_124\n      jumpi\n        /* \"#utility.yul\":3566:3567   */\n      0x00\n        /* \"#utility.yul\":3563:3564   */\n      dup1\n        /* \"#utility.yul\":3556:3568   */\n      revert\n        /* \"#utility.yul\":3507:3509   */\n    tag_124:\n        /* \"#utility.yul\":3497:3576   */\n      pop\n      jump\t// out\n\n    auxdata: 0xa2646970667358221220daa34bbf80eedd28ebc2312bbddc27f398848cd006b2f4a93733a1138675e8f964736f6c63430008000033\n}\n",
				"bytecode": {
					"linkReferences": {},
					"object": "608060405234801561001057600080fd5b50604051806101000160405280600b60ff168152602001600260ff168152602001601f60ff168152602001602a60ff168152602001600560ff168152602001600160ff168152602001600760ff168152602001601260ff16815250600090600861007b929190610081565b506100f0565b8280548282559060005260206000209081019282156100c2579160200282015b828111156100c1578251829060ff169055916020019190600101906100a1565b5b5090506100cf91906100d3565b5090565b5b808211156100ec5760008160009055506001016100d4565b5090565b6107ec806100ff6000396000f3fe608060405234801561001057600080fd5b50600436106100575760003560e01c80630178fe3f1461005c5780632815741c1461008c5780635b4b73a9146100965780635d9ca85b146100b2578063d828a884146100e2575b600080fd5b6100766004803603810190610071919061056f565b6100ec565b6040516100839190610667565b60405180910390f35b610094610180565b005b6100b060048036038101906100ab919061056f565b6101db565b005b6100cc60048036038101906100c7919061056f565b6101e9565b6040516100d99190610667565b60405180910390f35b6100ea61020d565b005b600080805490508210610134576040517f08c379a000000000000000000000000000000000000000000000000000000000815260040161012b90610627565b60405180910390fd5b6000828154811061016e577f4e487b7100000000000000000000000000000000000000000000000000000000600052603260045260246000fd5b90600052602060002001549050919050565b6101d960008054806020026020016040519081016040528092919081815260200182805480156101cf57602002820191906000526020600020905b8154815260200190600101908083116101bb575b505050505061021a565b565b6101e6600082610432565b50565b600081815481106101f957600080fd5b906000526020600020016000915090505481565b610217600061045e565b50565b60008151905060005b60018261023091906106e9565b81101561042d5760005b818361024691906106e9565b811015610419578360018261025b9190610693565b81518110610292577f4e487b7100000000000000000000000000000000000000000000000000000000600052603260045260246000fd5b60200260200101518482815181106102d3577f4e487b7100000000000000000000000000000000000000000000000000000000600052603260045260246000fd5b6020026020010151111561040657836001826102ef9190610693565b81518110610326577f4e487b7100000000000000000000000000000000000000000000000000000000600052603260045260246000fd5b6020026020010151848281518110610367577f4e487b7100000000000000000000000000000000000000000000000000000000600052603260045260246000fd5b60200260200101518583815181106103a8577f4e487b7100000000000000000000000000000000000000000000000000000000600052603260045260246000fd5b60200260200101866001856103bd9190610693565b815181106103f4577f4e487b7100000000000000000000000000000000000000000000000000000000600052603260045260246000fd5b60200260200101828152508281525050505b808061041190610727565b91505061023a565b50808061042590610727565b915050610223565b505050565b818190806001815401808255809150506001900390600052602060002001600090919091909150555050565b6000808280549050116104a6576040517f08c379a000000000000000000000000000000000000000000000000000000000815260040161049d90610647565b60405180910390fd5b6000600183805490506104b991906106e9565b905060008382815481106104f6577f4e487b7100000000000000000000000000000000000000000000000000000000600052603260045260246000fd5b906000526020600020015490508380548061053a577f4e487b7100000000000000000000000000000000000000000000000000000000600052603160045260246000fd5b600190038181906000526020600020016000905590558092505050919050565b6000813590506105698161079f565b92915050565b60006020828403121561058157600080fd5b600061058f8482850161055a565b91505092915050565b60006105a5601383610682565b91507f5f696e646578206973206e6f74207468657265000000000000000000000000006000830152602082019050919050565b60006105e5600e83610682565b91507f417272617920697320656d7074790000000000000000000000000000000000006000830152602082019050919050565b6106218161071d565b82525050565b6000602082019050818103600083015261064081610598565b9050919050565b60006020820190508181036000830152610660816105d8565b9050919050565b600060208201905061067c6000830184610618565b92915050565b600082825260208201905092915050565b600061069e8261071d565b91506106a98361071d565b9250827fffffffffffffffffffffffffffffffffffffffffffffffffffffffffffffffff038211156106de576106dd610770565b5b828201905092915050565b60006106f48261071d565b91506106ff8361071d565b92508282101561071257610711610770565b5b828203905092915050565b6000819050919050565b60006107328261071d565b91507fffffffffffffffffffffffffffffffffffffffffffffffffffffffffffffffff82141561076557610764610770565b5b600182019050919050565b7f4e487b7100000000000000000000000000000000000000000000000000000000600052601160045260246000fd5b6107a88161071d565b81146107b357600080fd5b5056fea2646970667358221220daa34bbf80eedd28ebc2312bbddc27f398848cd006b2f4a93733a1138675e8f964736f6c63430008000033",
					"opcodes": "PUSH1 0x80 PUSH1 0x40 MSTORE CALLVALUE DUP1 ISZERO PUSH2 0x10 JUMPI PUSH1 0x0 DUP1 REVERT JUMPDEST POP PUSH1 0x40 MLOAD DUP1 PUSH2 0x100 ADD PUSH1 0x40 MSTORE DUP1 PUSH1 0xB PUSH1 0xFF AND DUP2 MSTORE PUSH1 0x20 ADD PUSH1 0x2 PUSH1 0xFF AND DUP2 MSTORE PUSH1 0x20 ADD PUSH1 0x1F PUSH1 0xFF AND DUP2 MSTORE PUSH1 0x20 ADD PUSH1 0x2A PUSH1 0xFF AND DUP2 MSTORE PUSH1 0x20 ADD PUSH1 0x5 PUSH1 0xFF AND DUP2 MSTORE PUSH1 0x20 ADD PUSH1 0x1 PUSH1 0xFF AND DUP2 MSTORE PUSH1 0x20 ADD PUSH1 0x7 PUSH1 0xFF AND DUP2 MSTORE PUSH1 0x20 ADD PUSH1 0x12 PUSH1 0xFF AND DUP2 MSTORE POP PUSH1 0x0 SWAP1 PUSH1 0x8 PUSH2 0x7B SWAP3 SWAP2 SWAP1 PUSH2 0x81 JUMP JUMPDEST POP PUSH2 0xF0 JUMP JUMPDEST DUP3 DUP1 SLOAD DUP3 DUP3 SSTORE SWAP1 PUSH1 0x0 MSTORE PUSH1 0x20 PUSH1 0x0 KECCAK256 SWAP1 DUP2 ADD SWAP3 DUP3 ISZERO PUSH2 0xC2 JUMPI SWAP2 PUSH1 0x20 MUL DUP3 ADD JUMPDEST DUP3 DUP2 GT ISZERO PUSH2 0xC1 JUMPI DUP3 MLOAD DUP3 SWAP1 PUSH1 0xFF AND SWAP1 SSTORE SWAP2 PUSH1 0x20 ADD SWAP2 SWAP1 PUSH1 0x1 ADD SWAP1 PUSH2 0xA1 JUMP JUMPDEST JUMPDEST POP SWAP1 POP PUSH2 0xCF SWAP2 SWAP1 PUSH2 0xD3 JUMP JUMPDEST POP SWAP1 JUMP JUMPDEST JUMPDEST DUP1 DUP3 GT ISZERO PUSH2 0xEC JUMPI PUSH1 0x0 DUP2 PUSH1 0x0 SWAP1 SSTORE POP PUSH1 0x1 ADD PUSH2 0xD4 JUMP JUMPDEST POP SWAP1 JUMP JUMPDEST PUSH2 0x7EC DUP1 PUSH2 0xFF PUSH1 0x0 CODECOPY PUSH1 0x0 RETURN INVALID PUSH1 0x80 PUSH1 0x40 MSTORE CALLVALUE DUP1 ISZERO PUSH2 0x10 JUMPI PUSH1 0x0 DUP1 REVERT JUMPDEST POP PUSH1 0x4 CALLDATASIZE LT PUSH2 0x57 JUMPI PUSH1 0x0 CALLDATALOAD PUSH1 0xE0 SHR DUP1 PUSH4 0x178FE3F EQ PUSH2 0x5C JUMPI DUP1 PUSH4 0x2815741C EQ PUSH2 0x8C JUMPI DUP1 PUSH4 0x5B4B73A9 EQ PUSH2 0x96 JUMPI DUP1 PUSH4 0x5D9CA85B EQ PUSH2 0xB2 JUMPI DUP1 PUSH4 0xD828A884 EQ PUSH2 0xE2 JUMPI JUMPDEST PUSH1 0x0 DUP1 REVERT JUMPDEST PUSH2 0x76 PUSH1 0x4 DUP1 CALLDATASIZE SUB DUP2 ADD SWAP1 PUSH2 0x71 SWAP2 SWAP1 PUSH2 0x56F JUMP JUMPDEST PUSH2 0xEC JUMP JUMPDEST PUSH1 0x40 MLOAD PUSH2 0x83 SWAP2 SWAP1 PUSH2 0x667 JUMP JUMPDEST PUSH1 0x40 MLOAD DUP1 SWAP2 SUB SWAP1 RETURN JUMPDEST PUSH2 0x94 PUSH2 0x180 JUMP JUMPDEST STOP JUMPDEST PUSH2 0xB0 PUSH1 0x4 DUP1 CALLDATASIZE SUB DUP2 ADD SWAP1 PUSH2 0xAB SWAP2 SWAP1 PUSH2 0x56F JUMP JUMPDEST PUSH2 0x1DB JUMP JUMPDEST STOP JUMPDEST PUSH2 0xCC PUSH1 0x4 DUP1 CALLDATASIZE SUB DUP2 ADD SWAP1 PUSH2 0xC7 SWAP2 SWAP1 PUSH2 0x56F JUMP JUMPDEST PUSH2 0x1E9 JUMP JUMPDEST PUSH1 0x40 MLOAD PUSH2 0xD9 SWAP2 SWAP1 PUSH2 0x667 JUMP JUMPDEST PUSH1 0x40 MLOAD DUP1 SWAP2 SUB SWAP1 RETURN JUMPDEST PUSH2 0xEA PUSH2 0x20D JUMP JUMPDEST STOP JUMPDEST PUSH1 0x0 DUP1 DUP1 SLOAD SWAP1 POP DUP3 LT PUSH2 0x134 JUMPI PUSH1 0x40 MLOAD PUSH32 0x8C379A000000000000000000000000000000000000000000000000000000000 DUP2 MSTORE PUSH1 0x4 ADD PUSH2 0x12B SWAP1 PUSH2 0x627 JUMP JUMPDEST PUSH1 0x40 MLOAD DUP1 SWAP2 SUB SWAP1 REVERT JUMPDEST PUSH1 0x0 DUP3 DUP2 SLOAD DUP2 LT PUSH2 0x16E JUMPI PUSH32 0x4E487B7100000000000000000000000000000000000000000000000000000000 PUSH1 0x0 MSTORE PUSH1 0x32 PUSH1 0x4 MSTORE PUSH1 0x24 PUSH1 0x0 REVERT JUMPDEST SWAP1 PUSH1 0x0 MSTORE PUSH1 0x20 PUSH1 0x0 KECCAK256 ADD SLOAD SWAP1 POP SWAP2 SWAP1 POP JUMP JUMPDEST PUSH2 0x1D9 PUSH1 0x0 DUP1 SLOAD DUP1 PUSH1 0x20 MUL PUSH1 0x20 ADD PUSH1 0x40 MLOAD SWAP1 DUP2 ADD PUSH1 0x40 MSTORE DUP1 SWAP3 SWAP2 SWAP1 DUP2 DUP2 MSTORE PUSH1 0x20 ADD DUP3 DUP1 SLOAD DUP1 ISZERO PUSH2 0x1CF JUMPI PUSH1 0x20 MUL DUP3 ADD SWAP2 SWAP1 PUSH1 0x0 MSTORE PUSH1 0x20 PUSH1 0x0 KECCAK256 SWAP1 JUMPDEST DUP2 SLOAD DUP2 MSTORE PUSH1 0x20 ADD SWAP1 PUSH1 0x1 ADD SWAP1 DUP1 DUP4 GT PUSH2 0x1BB JUMPI JUMPDEST POP POP POP POP POP PUSH2 0x21A JUMP JUMPDEST JUMP JUMPDEST PUSH2 0x1E6 PUSH1 0x0 DUP3 PUSH2 0x432 JUMP JUMPDEST POP JUMP JUMPDEST PUSH1 0x0 DUP2 DUP2 SLOAD DUP2 LT PUSH2 0x1F9 JUMPI PUSH1 0x0 DUP1 REVERT JUMPDEST SWAP1 PUSH1 0x0 MSTORE PUSH1 0x20 PUSH1 0x0 KECCAK256 ADD PUSH1 0x0 SWAP2 POP SWAP1 POP SLOAD DUP2 JUMP JUMPDEST PUSH2 0x217 PUSH1 0x0 PUSH2 0x45E JUMP JUMPDEST POP JUMP JUMPDEST PUSH1 0x0 DUP2 MLOAD SWAP1 POP PUSH1 0x0 JUMPDEST PUSH1 0x1 DUP3 PUSH2 0x230 SWAP2 SWAP1 PUSH2 0x6E9 JUMP JUMPDEST DUP2 LT ISZERO PUSH2 0x42D JUMPI PUSH1 0x0 JUMPDEST DUP2 DUP4 PUSH2 0x246 SWAP2 SWAP1 PUSH2 0x6E9 JUMP JUMPDEST DUP2 LT ISZERO PUSH2 0x419 JUMPI DUP4 PUSH1 0x1 DUP3 PUSH2 0x25B SWAP2 SWAP1 PUSH2 0x693 JUMP JUMPDEST DUP2 MLOAD DUP2 LT PUSH2 0x292 JUMPI PUSH32 0x4E487B7100000000000000000000000000000000000000000000000000000000 PUSH1 0x0 MSTORE PUSH1 0x32 PUSH1 0x4 MSTORE PUSH1 0x24 PUSH1 0x0 REVERT JUMPDEST PUSH1 0x20 MUL PUSH1 0x20 ADD ADD MLOAD DUP5 DUP3 DUP2 MLOAD DUP2 LT PUSH2 0x2D3 JUMPI PUSH32 0x4E487B7100000000000000000000000000000000000000000000000000000000 PUSH1 0x0 MSTORE PUSH1 0x32 PUSH1 0x4 MSTORE PUSH1 0x24 PUSH1 0x0 REVERT JUMPDEST PUSH1 0x20 MUL PUSH1 0x20 ADD ADD MLOAD GT ISZERO PUSH2 0x406 JUMPI DUP4 PUSH1 0x1 DUP3 PUSH2 0x2EF SWAP2 SWAP1 PUSH2 0x693 JUMP JUMPDEST DUP2 MLOAD DUP2 LT PUSH2 0x326 JUMPI PUSH32 0x4E487B7100000000000000000000000000000000000000000000000000000000 PUSH1 0x0 MSTORE PUSH1 0x32 PUSH1 0x4 MSTORE PUSH1 0x24 PUSH1 0x0 REVERT JUMPDEST PUSH1 0x20 MUL PUSH1 0x20 ADD ADD MLOAD DUP5 DUP3 DUP2 MLOAD DUP2 LT PUSH2 0x367 JUMPI PUSH32 0x4E487B7100000000000000000000000000000000000000000000000000000000 PUSH1 0x0 MSTORE PUSH1 0x32 PUSH1 0x4 MSTORE PUSH1 0x24 PUSH1 0x0 REVERT JUMPDEST PUSH1 0x20 MUL PUSH1 0x20 ADD ADD MLOAD DUP6 DUP4 DUP2 MLOAD DUP2 LT PUSH2 0x3A8 JUMPI PUSH32 0x4E487B7100000000000000000000000000000000000000000000000000000000 PUSH1 0x0 MSTORE PUSH1 0x32 PUSH1 0x4 MSTORE PUSH1 0x24 PUSH1 0x0 REVERT JUMPDEST PUSH1 0x20 MUL PUSH1 0x20 ADD ADD DUP7 PUSH1 0x1 DUP6 PUSH2 0x3BD SWAP2 SWAP1 PUSH2 0x693 JUMP JUMPDEST DUP2 MLOAD DUP2 LT PUSH2 0x3F4 JUMPI PUSH32 0x4E487B7100000000000000000000000000000000000000000000000000000000 PUSH1 0x0 MSTORE PUSH1 0x32 PUSH1 0x4 MSTORE PUSH1 0x24 PUSH1 0x0 REVERT JUMPDEST PUSH1 0x20 MUL PUSH1 0x20 ADD ADD DUP3 DUP2 MSTORE POP DUP3 DUP2 MSTORE POP POP POP JUMPDEST DUP1 DUP1 PUSH2 0x411 SWAP1 PUSH2 0x727 JUMP JUMPDEST SWAP2 POP POP PUSH2 0x23A JUMP JUMPDEST POP DUP1 DUP1 PUSH2 0x425 SWAP1 PUSH2 0x727 JUMP JUMPDEST SWAP2 POP POP PUSH2 0x223 JUMP JUMPDEST POP POP POP JUMP JUMPDEST DUP2 DUP2 SWAP1 DUP1 PUSH1 0x1 DUP2 SLOAD ADD DUP1 DUP3 SSTORE DUP1 SWAP2 POP POP PUSH1 0x1 SWAP1 SUB SWAP1 PUSH1 0x0 MSTORE PUSH1 0x20 PUSH1 0x0 KECCAK256 ADD PUSH1 0x0 SWAP1 SWAP2 SWAP1 SWAP2 SWAP1 SWAP2 POP SSTORE POP POP JUMP JUMPDEST PUSH1 0x0 DUP1 DUP3 DUP1 SLOAD SWAP1 POP GT PUSH2 0x4A6 JUMPI PUSH1 0x40 MLOAD PUSH32 0x8C379A000000000000000000000000000000000000000000000000000000000 DUP2 MSTORE PUSH1 0x4 ADD PUSH2 0x49D SWAP1 PUSH2 0x647 JUMP JUMPDEST PUSH1 0x40 MLOAD DUP1 SWAP2 SUB SWAP1 REVERT JUMPDEST PUSH1 0x0 PUSH1 0x1 DUP4 DUP1 SLOAD SWAP1 POP PUSH2 0x4B9 SWAP2 SWAP1 PUSH2 0x6E9 JUMP JUMPDEST SWAP1 POP PUSH1 0x0 DUP4 DUP3 DUP2 SLOAD DUP2 LT PUSH2 0x4F6 JUMPI PUSH32 0x4E487B7100000000000000000000000000000000000000000000000000000000 PUSH1 0x0 MSTORE PUSH1 0x32 PUSH1 0x4 MSTORE PUSH1 0x24 PUSH1 0x0 REVERT JUMPDEST SWAP1 PUSH1 0x0 MSTORE PUSH1 0x20 PUSH1 0x0 KECCAK256 ADD SLOAD SWAP1 POP DUP4 DUP1 SLOAD DUP1 PUSH2 0x53A JUMPI PUSH32 0x4E487B7100000000000000000000000000000000000000000000000000000000 PUSH1 0x0 MSTORE PUSH1 0x31 PUSH1 0x4 MSTORE PUSH1 0x24 PUSH1 0x0 REVERT JUMPDEST PUSH1 0x1 SWAP1 SUB DUP2 DUP2 SWAP1 PUSH1 0x0 MSTORE PUSH1 0x20 PUSH1 0x0 KECCAK256 ADD PUSH1 0x0 SWAP1 SSTORE SWAP1 SSTORE DUP1 SWAP3 POP POP POP SWAP2 SWAP1 POP JUMP JUMPDEST PUSH1 0x0 DUP2 CALLDATALOAD SWAP1 POP PUSH2 0x569 DUP2 PUSH2 0x79F JUMP JUMPDEST SWAP3 SWAP2 POP POP JUMP JUMPDEST PUSH1 0x0 PUSH1 0x20 DUP3 DUP5 SUB SLT ISZERO PUSH2 0x581 JUMPI PUSH1 0x0 DUP1 REVERT JUMPDEST PUSH1 0x0 PUSH2 0x58F DUP5 DUP3 DUP6 ADD PUSH2 0x55A JUMP JUMPDEST SWAP2 POP POP SWAP3 SWAP2 POP POP JUMP JUMPDEST PUSH1 0x0 PUSH2 0x5A5 PUSH1 0x13 DUP4 PUSH2 0x682 JUMP JUMPDEST SWAP2 POP PUSH32 0x5F696E646578206973206E6F7420746865726500000000000000000000000000 PUSH1 0x0 DUP4 ADD MSTORE PUSH1 0x20 DUP3 ADD SWAP1 POP SWAP2 SWAP1 POP JUMP JUMPDEST PUSH1 0x0 PUSH2 0x5E5 PUSH1 0xE DUP4 PUSH2 0x682 JUMP JUMPDEST SWAP2 POP PUSH32 0x417272617920697320656D707479000000000000000000000000000000000000 PUSH1 0x0 DUP4 ADD MSTORE PUSH1 0x20 DUP3 ADD SWAP1 POP SWAP2 SWAP1 POP JUMP JUMPDEST PUSH2 0x621 DUP2 PUSH2 0x71D JUMP JUMPDEST DUP3 MSTORE POP POP JUMP JUMPDEST PUSH1 0x0 PUSH1 0x20 DUP3 ADD SWAP1 POP DUP2 DUP2 SUB PUSH1 0x0 DUP4 ADD MSTORE PUSH2 0x640 DUP2 PUSH2 0x598 JUMP JUMPDEST SWAP1 POP SWAP2 SWAP1 POP JUMP JUMPDEST PUSH1 0x0 PUSH1 0x20 DUP3 ADD SWAP1 POP DUP2 DUP2 SUB PUSH1 0x0 DUP4 ADD MSTORE PUSH2 0x660 DUP2 PUSH2 0x5D8 JUMP JUMPDEST SWAP1 POP SWAP2 SWAP1 POP JUMP JUMPDEST PUSH1 0x0 PUSH1 0x20 DUP3 ADD SWAP1 POP PUSH2 0x67C PUSH1 0x0 DUP4 ADD DUP5 PUSH2 0x618 JUMP JUMPDEST SWAP3 SWAP2 POP POP JUMP JUMPDEST PUSH1 0x0 DUP3 DUP3 MSTORE PUSH1 0x20 DUP3 ADD SWAP1 POP SWAP3 SWAP2 POP POP JUMP JUMPDEST PUSH1 0x0 PUSH2 0x69E DUP3 PUSH2 0x71D JUMP JUMPDEST SWAP2 POP PUSH2 0x6A9 DUP4 PUSH2 0x71D JUMP JUMPDEST SWAP3 POP DUP3 PUSH32 0xFFFFFFFFFFFFFFFFFFFFFFFFFFFFFFFFFFFFFFFFFFFFFFFFFFFFFFFFFFFFFFFF SUB DUP3 GT ISZERO PUSH2 0x6DE JUMPI PUSH2 0x6DD PUSH2 0x770 JUMP JUMPDEST JUMPDEST DUP3 DUP3 ADD SWAP1 POP SWAP3 SWAP2 POP POP JUMP JUMPDEST PUSH1 0x0 PUSH2 0x6F4 DUP3 PUSH2 0x71D JUMP JUMPDEST SWAP2 POP PUSH2 0x6FF DUP4 PUSH2 0x71D JUMP JUMPDEST SWAP3 POP DUP3 DUP3 LT ISZERO PUSH2 0x712 JUMPI PUSH2 0x711 PUSH2 0x770 JUMP JUMPDEST JUMPDEST DUP3 DUP3 SUB SWAP1 POP SWAP3 SWAP2 POP POP JUMP JUMPDEST PUSH1 0x0 DUP2 SWAP1 POP SWAP2 SWAP1 POP JUMP JUMPDEST PUSH1 0x0 PUSH2 0x732 DUP3 PUSH2 0x71D JUMP JUMPDEST SWAP2 POP PUSH32 0xFFFFFFFFFFFFFFFFFFFFFFFFFFFFFFFFFFFFFFFFFFFFFFFFFFFFFFFFFFFFFFFF DUP3 EQ ISZERO PUSH2 0x765 JUMPI PUSH2 0x764 PUSH2 0x770 JUMP JUMPDEST JUMPDEST PUSH1 0x1 DUP3 ADD SWAP1 POP SWAP2 SWAP1 POP JUMP JUMPDEST PUSH32 0x4E487B7100000000000000000000000000000000000000000000000000000000 PUSH1 0x0 MSTORE PUSH1 0x11 PUSH1 0x4 MSTORE PUSH1 0x24 PUSH1 0x0 REVERT JUMPDEST PUSH2 0x7A8 DUP2 PUSH2 0x71D JUMP JUMPDEST DUP2 EQ PUSH2 0x7B3 JUMPI PUSH1 0x0 DUP1 REVERT JUMPDEST POP JUMP INVALID LOG2 PUSH5 0x6970667358 0x22 SLT KECCAK256 0xDA LOG3 0x4B 0xBF DUP1 0xEE 0xDD 0x28 0xEB 0xC2 BALANCE 0x2B 0xBD 0xDC 0x27 RETURN SWAP9 DUP5 DUP13 0xD0 MOD 0xB2 DELEGATECALL 0xA9 CALLDATACOPY CALLER LOG1 SGT DUP7 PUSH22 0xE8F964736F6C63430008000033000000000000000000 "
				},
				"gasEstimates": {
					"creation": {
						"codeDepositCost": "405600",
						"executionCost": "infinite",
						"totalCost": "infinite"
					},
					"external": {
						"ManupArray(uint256)": "infinite",
						"PopValue()": "infinite",
						"Sort()": "infinite",
						"getData(uint256)": "infinite",
						"setData(uint256)": "41385"
					}
				},
				"methodIdentifiers": {
					"ManupArray(uint256)": "5d9ca85b",
					"PopValue()": "d828a884",
					"Sort()": "2815741c",
					"getData(uint256)": "0178fe3f",
					"setData(uint256)": "5b4b73a9"
				}
			},
			"storageLayout": {
				"storage": [
					{
						"astId": 128,
						"contract": "ArrayLab.sol:ArrayLab",
						"label": "ManupArray",
						"offset": 0,
						"slot": "0",
						"type": "t_array(t_uint256)dyn_storage"
					}
				],
				"types": {
					"t_array(t_uint256)dyn_storage": {
						"base": "t_uint256",
						"encoding": "dynamic_array",
						"label": "uint256[]",
						"numberOfBytes": "32"
					},
					"t_uint256": {
						"encoding": "inplace",
						"label": "uint256",
						"numberOfBytes": "32"
					}
				}
			},
			"userdoc": {
				"kind": "user",
				"methods": {},
				"version": 1
			}
		}
	}
}