{
	"ArrayLab1.sol": {
		"SortingAndDuplicates": {
			"abi": [
				{
					"inputs": [],
					"stateMutability": "nonpayable",
					"type": "constructor"
				},
				{
					"inputs": [
						{
							"internalType": "uint256",
							"name": "_value",
							"type": "uint256"
						}
					],
					"name": "addValue",
					"outputs": [],
					"stateMutability": "nonpayable",
					"type": "function"
				},
				{
					"inputs": [
						{
							"internalType": "uint256",
							"name": "",
							"type": "uint256"
						}
					],
					"name": "myArray",
					"outputs": [
						{
							"internalType": "uint256",
							"name": "",
							"type": "uint256"
						}
					],
					"stateMutability": "view",
					"type": "function"
				},
				{
					"inputs": [],
					"name": "sortAndRemoveDuplicates",
					"outputs": [],
					"stateMutability": "nonpayable",
					"type": "function"
				}
			],
			"devdoc": {
				"kind": "dev",
				"methods": {},
				"version": 1
			},
			"evm": {
				"assembly": "    /* \"ArrayLab1.sol\":1241:1603  contract SortingAndDuplicates {... */\n  mstore(0x40, 0x80)\n    /* \"ArrayLab1.sol\":1339:1405  constructor(){... */\n  callvalue\n  dup1\n  iszero\n  tag_1\n  jumpi\n  0x00\n  dup1\n  revert\ntag_1:\n  pop\n    /* \"ArrayLab1.sol\":1362:1398  myArray=[10,2,34,24,5,664,6,46,35,6] */\n  mload(0x40)\n  dup1\n  0x0140\n  add\n  0x40\n  mstore\n  dup1\n    /* \"ArrayLab1.sol\":1371:1373  10 */\n  0x0a\n    /* \"ArrayLab1.sol\":1362:1398  myArray=[10,2,34,24,5,664,6,46,35,6] */\n  0xffff\n  and\n  dup2\n  mstore\n  0x20\n  add\n    /* \"ArrayLab1.sol\":1374:1375  2 */\n  0x02\n    /* \"ArrayLab1.sol\":1362:1398  myArray=[10,2,34,24,5,664,6,46,35,6] */\n  0xffff\n  and\n  dup2\n  mstore\n  0x20\n  add\n    /* \"ArrayLab1.sol\":1376:1378  34 */\n  0x22\n    /* \"ArrayLab1.sol\":1362:1398  myArray=[10,2,34,24,5,664,6,46,35,6] */\n  0xffff\n  and\n  dup2\n  mstore\n  0x20\n  add\n    /* \"ArrayLab1.sol\":1379:1381  24 */\n  0x18\n    /* \"ArrayLab1.sol\":1362:1398  myArray=[10,2,34,24,5,664,6,46,35,6] */\n  0xffff\n  and\n  dup2\n  mstore\n  0x20\n  add\n    /* \"ArrayLab1.sol\":1382:1383  5 */\n  0x05\n    /* \"ArrayLab1.sol\":1362:1398  myArray=[10,2,34,24,5,664,6,46,35,6] */\n  0xffff\n  and\n  dup2\n  mstore\n  0x20\n  add\n    /* \"ArrayLab1.sol\":1384:1387  664 */\n  0x0298\n    /* \"ArrayLab1.sol\":1362:1398  myArray=[10,2,34,24,5,664,6,46,35,6] */\n  0xffff\n  and\n  dup2\n  mstore\n  0x20\n  add\n    /* \"ArrayLab1.sol\":1388:1389  6 */\n  0x06\n    /* \"ArrayLab1.sol\":1362:1398  myArray=[10,2,34,24,5,664,6,46,35,6] */\n  0xffff\n  and\n  dup2\n  mstore\n  0x20\n  add\n    /* \"ArrayLab1.sol\":1390:1392  46 */\n  0x2e\n    /* \"ArrayLab1.sol\":1362:1398  myArray=[10,2,34,24,5,664,6,46,35,6] */\n  0xffff\n  and\n  dup2\n  mstore\n  0x20\n  add\n    /* \"ArrayLab1.sol\":1393:1395  35 */\n  0x23\n    /* \"ArrayLab1.sol\":1362:1398  myArray=[10,2,34,24,5,664,6,46,35,6] */\n  0xffff\n  and\n  dup2\n  mstore\n  0x20\n  add\n    /* \"ArrayLab1.sol\":1396:1397  6 */\n  0x06\n    /* \"ArrayLab1.sol\":1362:1398  myArray=[10,2,34,24,5,664,6,46,35,6] */\n  0xffff\n  and\n  dup2\n  mstore\n  pop\n    /* \"ArrayLab1.sol\":1362:1369  myArray */\n  0x00\n    /* \"ArrayLab1.sol\":1362:1398  myArray=[10,2,34,24,5,664,6,46,35,6] */\n  swap1\n  0x0a\n  tag_4\n  swap3\n  swap2\n  swap1\n  tag_5\n  jump\t// in\ntag_4:\n  pop\n    /* \"ArrayLab1.sol\":1241:1603  contract SortingAndDuplicates {... */\n  jump(tag_6)\ntag_5:\n  dup3\n  dup1\n  sload\n  dup3\n  dup3\n  sstore\n  swap1\n  0x00\n  mstore\n  keccak256(0x00, 0x20)\n  swap1\n  dup2\n  add\n  swap3\n  dup3\n  iszero\n  tag_7\n  jumpi\n  swap2\n  0x20\n  mul\n  dup3\n  add\ntag_8:\n  dup3\n  dup2\n  gt\n  iszero\n  tag_9\n  jumpi\n  dup3\n  mload\n  dup3\n  swap1\n  0xffff\n  and\n  swap1\n  sstore\n  swap2\n  0x20\n  add\n  swap2\n  swap1\n  0x01\n  add\n  swap1\n  jump(tag_8)\ntag_9:\ntag_7:\n  pop\n  swap1\n  pop\n  tag_10\n  swap2\n  swap1\n  tag_11\n  jump\t// in\ntag_10:\n  pop\n  swap1\n  jump\t// out\ntag_11:\ntag_12:\n  dup1\n  dup3\n  gt\n  iszero\n  tag_13\n  jumpi\n  0x00\n  dup2\n  0x00\n  swap1\n  sstore\n  pop\n  0x01\n  add\n  jump(tag_12)\ntag_13:\n  pop\n  swap1\n  jump\t// out\ntag_6:\n  dataSize(sub_0)\n  dup1\n  dataOffset(sub_0)\n  0x00\n  codecopy\n  0x00\n  return\nstop\n\nsub_0: assembly {\n        /* \"ArrayLab1.sol\":1241:1603  contract SortingAndDuplicates {... */\n      mstore(0x40, 0x80)\n      callvalue\n      dup1\n      iszero\n      tag_1\n      jumpi\n      0x00\n      dup1\n      revert\n    tag_1:\n      pop\n      jumpi(tag_2, lt(calldatasize, 0x04))\n      shr(0xe0, calldataload(0x00))\n      dup1\n      0x5b9af12b\n      eq\n      tag_3\n      jumpi\n      dup1\n      0x7f6934ff\n      eq\n      tag_4\n      jumpi\n      dup1\n      0xcc3e57d9\n      eq\n      tag_5\n      jumpi\n    tag_2:\n      0x00\n      dup1\n      revert\n        /* \"ArrayLab1.sol\":1411:1486  function addValue(uint _value) public {... */\n    tag_3:\n      tag_6\n      0x04\n      dup1\n      calldatasize\n      sub\n      dup2\n      add\n      swap1\n      tag_7\n      swap2\n      swap1\n      tag_8\n      jump\t// in\n    tag_7:\n      tag_9\n      jump\t// in\n    tag_6:\n      stop\n        /* \"ArrayLab1.sol\":1492:1601  function sortAndRemoveDuplicates() public {... */\n    tag_4:\n      tag_10\n      tag_11\n      jump\t// in\n    tag_10:\n      stop\n        /* \"ArrayLab1.sol\":1311:1332  uint[] public myArray */\n    tag_5:\n      tag_12\n      0x04\n      dup1\n      calldatasize\n      sub\n      dup2\n      add\n      swap1\n      tag_13\n      swap2\n      swap1\n      tag_8\n      jump\t// in\n    tag_13:\n      tag_14\n      jump\t// in\n    tag_12:\n      mload(0x40)\n      tag_15\n      swap2\n      swap1\n      tag_16\n      jump\t// in\n    tag_15:\n      mload(0x40)\n      dup1\n      swap2\n      sub\n      swap1\n      return\n        /* \"ArrayLab1.sol\":1411:1486  function addValue(uint _value) public {... */\n    tag_9:\n        /* \"ArrayLab1.sol\":1459:1466  myArray */\n      0x00\n        /* \"ArrayLab1.sol\":1472:1478  _value */\n      dup2\n        /* \"ArrayLab1.sol\":1459:1479  myArray.push(_value) */\n      swap1\n      dup1\n      0x01\n      dup2\n      sload\n      add\n      dup1\n      dup3\n      sstore\n      dup1\n      swap2\n      pop\n      pop\n      0x01\n      swap1\n      sub\n      swap1\n      0x00\n      mstore\n      keccak256(0x00, 0x20)\n      add\n      0x00\n      swap1\n      swap2\n      swap1\n      swap2\n      swap1\n      swap2\n      pop\n      sstore\n        /* \"ArrayLab1.sol\":1411:1486  function addValue(uint _value) public {... */\n      pop\n      jump\t// out\n        /* \"ArrayLab1.sol\":1492:1601  function sortAndRemoveDuplicates() public {... */\n    tag_11:\n        /* \"ArrayLab1.sol\":1544:1558  myArray.sort() */\n      tag_20\n        /* \"ArrayLab1.sol\":1544:1551  myArray */\n      0x00\n        /* \"ArrayLab1.sol\":1544:1556  myArray.sort */\n      tag_21\n        /* \"ArrayLab1.sol\":1544:1558  myArray.sort() */\n      jump\t// in\n    tag_20:\n        /* \"ArrayLab1.sol\":1568:1594  myArray.removeDuplicates() */\n      tag_22\n        /* \"ArrayLab1.sol\":1568:1575  myArray */\n      0x00\n        /* \"ArrayLab1.sol\":1568:1592  myArray.removeDuplicates */\n      tag_23\n        /* \"ArrayLab1.sol\":1568:1594  myArray.removeDuplicates() */\n      jump\t// in\n    tag_22:\n        /* \"ArrayLab1.sol\":1492:1601  function sortAndRemoveDuplicates() public {... */\n      jump\t// out\n        /* \"ArrayLab1.sol\":1311:1332  uint[] public myArray */\n    tag_14:\n      0x00\n      dup2\n      dup2\n      sload\n      dup2\n      lt\n      tag_24\n      jumpi\n      0x00\n      dup1\n      revert\n    tag_24:\n      swap1\n      0x00\n      mstore\n      keccak256(0x00, 0x20)\n      add\n      0x00\n      swap2\n      pop\n      swap1\n      pop\n      sload\n      dup2\n      jump\t// out\n        /* \"ArrayLab1.sol\":175:554  function sort(uint[] storage data) internal {... */\n    tag_21:\n        /* \"ArrayLab1.sol\":229:240  uint length */\n      0x00\n        /* \"ArrayLab1.sol\":243:247  data */\n      dup2\n        /* \"ArrayLab1.sol\":243:254  data.length */\n      dup1\n      sload\n      swap1\n      pop\n        /* \"ArrayLab1.sol\":229:254  uint length = data.length */\n      swap1\n      pop\n        /* \"ArrayLab1.sol\":269:275  uint i */\n      0x00\n        /* \"ArrayLab1.sol\":264:515  for (uint i = 0; i < length - 1; i++) {... */\n    tag_27:\n        /* \"ArrayLab1.sol\":294:295  1 */\n      0x01\n        /* \"ArrayLab1.sol\":285:291  length */\n      dup3\n        /* \"ArrayLab1.sol\":285:295  length - 1 */\n      tag_30\n      swap2\n      swap1\n      tag_31\n      jump\t// in\n    tag_30:\n        /* \"ArrayLab1.sol\":281:282  i */\n      dup2\n        /* \"ArrayLab1.sol\":281:295  i < length - 1 */\n      lt\n        /* \"ArrayLab1.sol\":264:515  for (uint i = 0; i < length - 1; i++) {... */\n      iszero\n      tag_28\n      jumpi\n        /* \"ArrayLab1.sol\":321:327  uint j */\n      0x00\n        /* \"ArrayLab1.sol\":316:505  for (uint j = 0; j < length - i - 1; j++) {... */\n    tag_32:\n        /* \"ArrayLab1.sol\":350:351  1 */\n      0x01\n        /* \"ArrayLab1.sol\":346:347  i */\n      dup3\n        /* \"ArrayLab1.sol\":337:343  length */\n      dup5\n        /* \"ArrayLab1.sol\":337:347  length - i */\n      tag_35\n      swap2\n      swap1\n      tag_31\n      jump\t// in\n    tag_35:\n        /* \"ArrayLab1.sol\":337:351  length - i - 1 */\n      tag_36\n      swap2\n      swap1\n      tag_31\n      jump\t// in\n    tag_36:\n        /* \"ArrayLab1.sol\":333:334  j */\n      dup2\n        /* \"ArrayLab1.sol\":333:351  j < length - i - 1 */\n      lt\n        /* \"ArrayLab1.sol\":316:505  for (uint j = 0; j < length - i - 1; j++) {... */\n      iszero\n      tag_33\n      jumpi\n        /* \"ArrayLab1.sol\":390:394  data */\n      dup4\n        /* \"ArrayLab1.sol\":399:400  1 */\n      0x01\n        /* \"ArrayLab1.sol\":395:396  j */\n      dup3\n        /* \"ArrayLab1.sol\":395:400  j + 1 */\n      tag_37\n      swap2\n      swap1\n      tag_38\n      jump\t// in\n    tag_37:\n        /* \"ArrayLab1.sol\":390:401  data[j + 1] */\n      dup2\n      sload\n      dup2\n      lt\n      tag_39\n      jumpi\n      tag_40\n      tag_41\n      jump\t// in\n    tag_40:\n    tag_39:\n      swap1\n      0x00\n      mstore\n      keccak256(0x00, 0x20)\n      add\n      sload\n        /* \"ArrayLab1.sol\":380:384  data */\n      dup5\n        /* \"ArrayLab1.sol\":385:386  j */\n      dup3\n        /* \"ArrayLab1.sol\":380:387  data[j] */\n      dup2\n      sload\n      dup2\n      lt\n      tag_43\n      jumpi\n      tag_44\n      tag_41\n      jump\t// in\n    tag_44:\n    tag_43:\n      swap1\n      0x00\n      mstore\n      keccak256(0x00, 0x20)\n      add\n      sload\n        /* \"ArrayLab1.sol\":380:401  data[j] > data[j + 1] */\n      gt\n        /* \"ArrayLab1.sol\":376:491  if (data[j] > data[j + 1]) {... */\n      iszero\n      tag_46\n      jumpi\n        /* \"ArrayLab1.sol\":451:455  data */\n      dup4\n        /* \"ArrayLab1.sol\":460:461  1 */\n      0x01\n        /* \"ArrayLab1.sol\":456:457  j */\n      dup3\n        /* \"ArrayLab1.sol\":456:461  j + 1 */\n      tag_47\n      swap2\n      swap1\n      tag_38\n      jump\t// in\n    tag_47:\n        /* \"ArrayLab1.sol\":451:462  data[j + 1] */\n      dup2\n      sload\n      dup2\n      lt\n      tag_48\n      jumpi\n      tag_49\n      tag_41\n      jump\t// in\n    tag_49:\n    tag_48:\n      swap1\n      0x00\n      mstore\n      keccak256(0x00, 0x20)\n      add\n      sload\n        /* \"ArrayLab1.sol\":464:468  data */\n      dup5\n        /* \"ArrayLab1.sol\":469:470  j */\n      dup3\n        /* \"ArrayLab1.sol\":464:471  data[j] */\n      dup2\n      sload\n      dup2\n      lt\n      tag_51\n      jumpi\n      tag_52\n      tag_41\n      jump\t// in\n    tag_52:\n    tag_51:\n      swap1\n      0x00\n      mstore\n      keccak256(0x00, 0x20)\n      add\n      sload\n        /* \"ArrayLab1.sol\":426:430  data */\n      dup6\n        /* \"ArrayLab1.sol\":431:432  j */\n      dup4\n        /* \"ArrayLab1.sol\":426:433  data[j] */\n      dup2\n      sload\n      dup2\n      lt\n      tag_54\n      jumpi\n      tag_55\n      tag_41\n      jump\t// in\n    tag_55:\n    tag_54:\n      swap1\n      0x00\n      mstore\n      keccak256(0x00, 0x20)\n      add\n      0x00\n        /* \"ArrayLab1.sol\":435:439  data */\n      dup8\n        /* \"ArrayLab1.sol\":444:445  1 */\n      0x01\n        /* \"ArrayLab1.sol\":440:441  j */\n      dup7\n        /* \"ArrayLab1.sol\":440:445  j + 1 */\n      tag_57\n      swap2\n      swap1\n      tag_38\n      jump\t// in\n    tag_57:\n        /* \"ArrayLab1.sol\":435:446  data[j + 1] */\n      dup2\n      sload\n      dup2\n      lt\n      tag_58\n      jumpi\n      tag_59\n      tag_41\n      jump\t// in\n    tag_59:\n    tag_58:\n      swap1\n      0x00\n      mstore\n      keccak256(0x00, 0x20)\n      add\n      0x00\n        /* \"ArrayLab1.sol\":425:472  (data[j], data[j + 1]) = (data[j + 1], data[j]) */\n      dup5\n      swap2\n      swap1\n      pop\n      sstore\n      dup4\n      swap2\n      swap1\n      pop\n      sstore\n      pop\n      pop\n        /* \"ArrayLab1.sol\":376:491  if (data[j] > data[j + 1]) {... */\n    tag_46:\n        /* \"ArrayLab1.sol\":353:356  j++ */\n      dup1\n      dup1\n      tag_61\n      swap1\n      tag_62\n      jump\t// in\n    tag_61:\n      swap2\n      pop\n      pop\n        /* \"ArrayLab1.sol\":316:505  for (uint j = 0; j < length - i - 1; j++) {... */\n      jump(tag_32)\n    tag_33:\n      pop\n        /* \"ArrayLab1.sol\":297:300  i++ */\n      dup1\n      dup1\n      tag_63\n      swap1\n      tag_62\n      jump\t// in\n    tag_63:\n      swap2\n      pop\n      pop\n        /* \"ArrayLab1.sol\":264:515  for (uint i = 0; i < length - 1; i++) {... */\n      jump(tag_27)\n    tag_28:\n      pop\n        /* \"ArrayLab1.sol\":530:547  ArraySorted(data) */\n      0x5075bd6f85a03a4e981a85570fcadb5b0739a53001e71f2a7b715cb874addb0d\n        /* \"ArrayLab1.sol\":542:546  data */\n      dup3\n        /* \"ArrayLab1.sol\":530:547  ArraySorted(data) */\n      mload(0x40)\n      tag_64\n      swap2\n      swap1\n      tag_65\n      jump\t// in\n    tag_64:\n      mload(0x40)\n      dup1\n      swap2\n      sub\n      swap1\n      log1\n        /* \"ArrayLab1.sol\":219:554  {... */\n      pop\n        /* \"ArrayLab1.sol\":175:554  function sort(uint[] storage data) internal {... */\n      pop\n      jump\t// out\n        /* \"ArrayLab1.sol\":560:1237  function removeDuplicates(uint[] storage data) internal {... */\n    tag_23:\n        /* \"ArrayLab1.sol\":626:637  uint length */\n      0x00\n        /* \"ArrayLab1.sol\":640:644  data */\n      dup2\n        /* \"ArrayLab1.sol\":640:651  data.length */\n      dup1\n      sload\n      swap1\n      pop\n        /* \"ArrayLab1.sol\":626:651  uint length = data.length */\n      swap1\n      pop\n        /* \"ArrayLab1.sol\":675:676  1 */\n      0x01\n        /* \"ArrayLab1.sol\":665:671  length */\n      dup2\n        /* \"ArrayLab1.sol\":665:676  length <= 1 */\n      gt\n        /* \"ArrayLab1.sol\":661:709  if (length <= 1) {... */\n      tag_67\n      jumpi\n        /* \"ArrayLab1.sol\":692:699  return; */\n      pop\n      jump(tag_66)\n        /* \"ArrayLab1.sol\":661:709  if (length <= 1) {... */\n    tag_67:\n        /* \"ArrayLab1.sol\":719:728  uint tail */\n      0x00\n        /* \"ArrayLab1.sol\":731:732  1 */\n      0x01\n        /* \"ArrayLab1.sol\":719:732  uint tail = 1 */\n      swap1\n      pop\n        /* \"ArrayLab1.sol\":747:753  uint i */\n      0x00\n        /* \"ArrayLab1.sol\":756:757  1 */\n      0x01\n        /* \"ArrayLab1.sol\":747:757  uint i = 1 */\n      swap1\n      pop\n        /* \"ArrayLab1.sol\":742:1120  for (uint i = 1; i < length; i++) {... */\n    tag_68:\n        /* \"ArrayLab1.sol\":763:769  length */\n      dup3\n        /* \"ArrayLab1.sol\":759:760  i */\n      dup2\n        /* \"ArrayLab1.sol\":759:769  i < length */\n      lt\n        /* \"ArrayLab1.sol\":742:1120  for (uint i = 1; i < length; i++) {... */\n      iszero\n      tag_69\n      jumpi\n        /* \"ArrayLab1.sol\":790:806  bool isDuplicate */\n      0x00\n        /* \"ArrayLab1.sol\":833:839  uint j */\n      dup1\n        /* \"ArrayLab1.sol\":828:1002  for (uint j = 0; j < tail; j++) {... */\n    tag_71:\n        /* \"ArrayLab1.sol\":849:853  tail */\n      dup4\n        /* \"ArrayLab1.sol\":845:846  j */\n      dup2\n        /* \"ArrayLab1.sol\":845:853  j < tail */\n      lt\n        /* \"ArrayLab1.sol\":828:1002  for (uint j = 0; j < tail; j++) {... */\n      iszero\n      tag_72\n      jumpi\n        /* \"ArrayLab1.sol\":893:897  data */\n      dup6\n        /* \"ArrayLab1.sol\":898:899  j */\n      dup2\n        /* \"ArrayLab1.sol\":893:900  data[j] */\n      dup2\n      sload\n      dup2\n      lt\n      tag_74\n      jumpi\n      tag_75\n      tag_41\n      jump\t// in\n    tag_75:\n    tag_74:\n      swap1\n      0x00\n      mstore\n      keccak256(0x00, 0x20)\n      add\n      sload\n        /* \"ArrayLab1.sol\":882:886  data */\n      dup7\n        /* \"ArrayLab1.sol\":887:888  i */\n      dup5\n        /* \"ArrayLab1.sol\":882:889  data[i] */\n      dup2\n      sload\n      dup2\n      lt\n      tag_77\n      jumpi\n      tag_78\n      tag_41\n      jump\t// in\n    tag_78:\n    tag_77:\n      swap1\n      0x00\n      mstore\n      keccak256(0x00, 0x20)\n      add\n      sload\n        /* \"ArrayLab1.sol\":882:900  data[i] == data[j] */\n      sub\n        /* \"ArrayLab1.sol\":878:988  if (data[i] == data[j]) {... */\n      tag_80\n      jumpi\n        /* \"ArrayLab1.sol\":938:942  true */\n      0x01\n        /* \"ArrayLab1.sol\":924:942  isDuplicate = true */\n      swap2\n      pop\n        /* \"ArrayLab1.sol\":964:969  break */\n      jump(tag_72)\n        /* \"ArrayLab1.sol\":878:988  if (data[i] == data[j]) {... */\n    tag_80:\n        /* \"ArrayLab1.sol\":855:858  j++ */\n      dup1\n      dup1\n      tag_81\n      swap1\n      tag_62\n      jump\t// in\n    tag_81:\n      swap2\n      pop\n      pop\n        /* \"ArrayLab1.sol\":828:1002  for (uint j = 0; j < tail; j++) {... */\n      jump(tag_71)\n    tag_72:\n      pop\n        /* \"ArrayLab1.sol\":1020:1031  isDuplicate */\n      dup1\n        /* \"ArrayLab1.sol\":1015:1110  if (!isDuplicate) {... */\n      tag_82\n      jumpi\n        /* \"ArrayLab1.sol\":1064:1068  data */\n      dup5\n        /* \"ArrayLab1.sol\":1069:1070  i */\n      dup3\n        /* \"ArrayLab1.sol\":1064:1071  data[i] */\n      dup2\n      sload\n      dup2\n      lt\n      tag_83\n      jumpi\n      tag_84\n      tag_41\n      jump\t// in\n    tag_84:\n    tag_83:\n      swap1\n      0x00\n      mstore\n      keccak256(0x00, 0x20)\n      add\n      sload\n        /* \"ArrayLab1.sol\":1051:1055  data */\n      dup6\n        /* \"ArrayLab1.sol\":1056:1060  tail */\n      dup5\n        /* \"ArrayLab1.sol\":1051:1061  data[tail] */\n      dup2\n      sload\n      dup2\n      lt\n      tag_86\n      jumpi\n      tag_87\n      tag_41\n      jump\t// in\n    tag_87:\n    tag_86:\n      swap1\n      0x00\n      mstore\n      keccak256(0x00, 0x20)\n      add\n        /* \"ArrayLab1.sol\":1051:1071  data[tail] = data[i] */\n      dup2\n      swap1\n      sstore\n      pop\n        /* \"ArrayLab1.sol\":1089:1095  tail++ */\n      dup3\n      dup1\n      tag_89\n      swap1\n      tag_62\n      jump\t// in\n    tag_89:\n      swap4\n      pop\n      pop\n        /* \"ArrayLab1.sol\":1015:1110  if (!isDuplicate) {... */\n    tag_82:\n        /* \"ArrayLab1.sol\":776:1120  {... */\n      pop\n        /* \"ArrayLab1.sol\":771:774  i++ */\n      dup1\n      dup1\n      tag_90\n      swap1\n      tag_62\n      jump\t// in\n    tag_90:\n      swap2\n      pop\n      pop\n        /* \"ArrayLab1.sol\":742:1120  for (uint i = 1; i < length; i++) {... */\n      jump(tag_68)\n    tag_69:\n      pop\n        /* \"ArrayLab1.sol\":1130:1192  while (data.length > tail) {... */\n    tag_91:\n        /* \"ArrayLab1.sol\":1151:1155  tail */\n      dup1\n        /* \"ArrayLab1.sol\":1137:1141  data */\n      dup4\n        /* \"ArrayLab1.sol\":1137:1148  data.length */\n      dup1\n      sload\n      swap1\n      pop\n        /* \"ArrayLab1.sol\":1137:1155  data.length > tail */\n      gt\n        /* \"ArrayLab1.sol\":1130:1192  while (data.length > tail) {... */\n      iszero\n      tag_92\n      jumpi\n        /* \"ArrayLab1.sol\":1171:1175  data */\n      dup3\n        /* \"ArrayLab1.sol\":1171:1181  data.pop() */\n      dup1\n      sload\n      dup1\n      tag_93\n      jumpi\n      tag_94\n      tag_95\n      jump\t// in\n    tag_94:\n    tag_93:\n      0x01\n      swap1\n      sub\n      dup2\n      dup2\n      swap1\n      0x00\n      mstore\n      keccak256(0x00, 0x20)\n      add\n      0x00\n      swap1\n      sstore\n      swap1\n      sstore\n        /* \"ArrayLab1.sol\":1130:1192  while (data.length > tail) {... */\n      jump(tag_91)\n    tag_92:\n        /* \"ArrayLab1.sol\":1207:1230  DuplicatesRemoved(data) */\n      0x012bbde505ecebf1bf859feb7e02c232253498a65f8ac825df8df92dbbee4441\n        /* \"ArrayLab1.sol\":1225:1229  data */\n      dup4\n        /* \"ArrayLab1.sol\":1207:1230  DuplicatesRemoved(data) */\n      mload(0x40)\n      tag_97\n      swap2\n      swap1\n      tag_65\n      jump\t// in\n    tag_97:\n      mload(0x40)\n      dup1\n      swap2\n      sub\n      swap1\n      log1\n        /* \"ArrayLab1.sol\":616:1237  {... */\n      pop\n      pop\n        /* \"ArrayLab1.sol\":560:1237  function removeDuplicates(uint[] storage data) internal {... */\n    tag_66:\n      pop\n      jump\t// out\n        /* \"#utility.yul\":88:205   */\n    tag_99:\n        /* \"#utility.yul\":197:198   */\n      0x00\n        /* \"#utility.yul\":194:195   */\n      dup1\n        /* \"#utility.yul\":187:199   */\n      revert\n        /* \"#utility.yul\":334:411   */\n    tag_101:\n        /* \"#utility.yul\":371:378   */\n      0x00\n        /* \"#utility.yul\":400:405   */\n      dup2\n        /* \"#utility.yul\":389:405   */\n      swap1\n      pop\n        /* \"#utility.yul\":334:411   */\n      swap2\n      swap1\n      pop\n      jump\t// out\n        /* \"#utility.yul\":417:539   */\n    tag_102:\n        /* \"#utility.yul\":490:514   */\n      tag_123\n        /* \"#utility.yul\":508:513   */\n      dup2\n        /* \"#utility.yul\":490:514   */\n      tag_101\n      jump\t// in\n    tag_123:\n        /* \"#utility.yul\":483:488   */\n      dup2\n        /* \"#utility.yul\":480:515   */\n      eq\n        /* \"#utility.yul\":470:533   */\n      tag_124\n      jumpi\n        /* \"#utility.yul\":529:530   */\n      0x00\n        /* \"#utility.yul\":526:527   */\n      dup1\n        /* \"#utility.yul\":519:531   */\n      revert\n        /* \"#utility.yul\":470:533   */\n    tag_124:\n        /* \"#utility.yul\":417:539   */\n      pop\n      jump\t// out\n        /* \"#utility.yul\":545:684   */\n    tag_103:\n        /* \"#utility.yul\":591:596   */\n      0x00\n        /* \"#utility.yul\":629:635   */\n      dup2\n        /* \"#utility.yul\":616:636   */\n      calldataload\n        /* \"#utility.yul\":607:636   */\n      swap1\n      pop\n        /* \"#utility.yul\":645:678   */\n      tag_126\n        /* \"#utility.yul\":672:677   */\n      dup2\n        /* \"#utility.yul\":645:678   */\n      tag_102\n      jump\t// in\n    tag_126:\n        /* \"#utility.yul\":545:684   */\n      swap3\n      swap2\n      pop\n      pop\n      jump\t// out\n        /* \"#utility.yul\":690:1019   */\n    tag_8:\n        /* \"#utility.yul\":749:755   */\n      0x00\n        /* \"#utility.yul\":798:800   */\n      0x20\n        /* \"#utility.yul\":786:795   */\n      dup3\n        /* \"#utility.yul\":777:784   */\n      dup5\n        /* \"#utility.yul\":773:796   */\n      sub\n        /* \"#utility.yul\":769:801   */\n      slt\n        /* \"#utility.yul\":766:885   */\n      iszero\n      tag_128\n      jumpi\n        /* \"#utility.yul\":804:883   */\n      tag_129\n      tag_99\n      jump\t// in\n    tag_129:\n        /* \"#utility.yul\":766:885   */\n    tag_128:\n        /* \"#utility.yul\":924:925   */\n      0x00\n        /* \"#utility.yul\":949:1002   */\n      tag_130\n        /* \"#utility.yul\":994:1001   */\n      dup5\n        /* \"#utility.yul\":985:991   */\n      dup3\n        /* \"#utility.yul\":974:983   */\n      dup6\n        /* \"#utility.yul\":970:992   */\n      add\n        /* \"#utility.yul\":949:1002   */\n      tag_103\n      jump\t// in\n    tag_130:\n        /* \"#utility.yul\":939:1002   */\n      swap2\n      pop\n        /* \"#utility.yul\":895:1012   */\n      pop\n        /* \"#utility.yul\":690:1019   */\n      swap3\n      swap2\n      pop\n      pop\n      jump\t// out\n        /* \"#utility.yul\":1025:1143   */\n    tag_104:\n        /* \"#utility.yul\":1112:1136   */\n      tag_132\n        /* \"#utility.yul\":1130:1135   */\n      dup2\n        /* \"#utility.yul\":1112:1136   */\n      tag_101\n      jump\t// in\n    tag_132:\n        /* \"#utility.yul\":1107:1110   */\n      dup3\n        /* \"#utility.yul\":1100:1137   */\n      mstore\n        /* \"#utility.yul\":1025:1143   */\n      pop\n      pop\n      jump\t// out\n        /* \"#utility.yul\":1149:1371   */\n    tag_16:\n        /* \"#utility.yul\":1242:1246   */\n      0x00\n        /* \"#utility.yul\":1280:1282   */\n      0x20\n        /* \"#utility.yul\":1269:1278   */\n      dup3\n        /* \"#utility.yul\":1265:1283   */\n      add\n        /* \"#utility.yul\":1257:1283   */\n      swap1\n      pop\n        /* \"#utility.yul\":1293:1364   */\n      tag_134\n        /* \"#utility.yul\":1361:1362   */\n      0x00\n        /* \"#utility.yul\":1350:1359   */\n      dup4\n        /* \"#utility.yul\":1346:1363   */\n      add\n        /* \"#utility.yul\":1337:1343   */\n      dup5\n        /* \"#utility.yul\":1293:1364   */\n      tag_104\n      jump\t// in\n    tag_134:\n        /* \"#utility.yul\":1149:1371   */\n      swap3\n      swap2\n      pop\n      pop\n      jump\t// out\n        /* \"#utility.yul\":1377:1557   */\n    tag_105:\n        /* \"#utility.yul\":1425:1502   */\n      0x4e487b7100000000000000000000000000000000000000000000000000000000\n        /* \"#utility.yul\":1422:1423   */\n      0x00\n        /* \"#utility.yul\":1415:1503   */\n      mstore\n        /* \"#utility.yul\":1522:1526   */\n      0x11\n        /* \"#utility.yul\":1519:1520   */\n      0x04\n        /* \"#utility.yul\":1512:1527   */\n      mstore\n        /* \"#utility.yul\":1546:1550   */\n      0x24\n        /* \"#utility.yul\":1543:1544   */\n      0x00\n        /* \"#utility.yul\":1536:1551   */\n      revert\n        /* \"#utility.yul\":1563:1757   */\n    tag_31:\n        /* \"#utility.yul\":1603:1607   */\n      0x00\n        /* \"#utility.yul\":1623:1643   */\n      tag_137\n        /* \"#utility.yul\":1641:1642   */\n      dup3\n        /* \"#utility.yul\":1623:1643   */\n      tag_101\n      jump\t// in\n    tag_137:\n        /* \"#utility.yul\":1618:1643   */\n      swap2\n      pop\n        /* \"#utility.yul\":1657:1677   */\n      tag_138\n        /* \"#utility.yul\":1675:1676   */\n      dup4\n        /* \"#utility.yul\":1657:1677   */\n      tag_101\n      jump\t// in\n    tag_138:\n        /* \"#utility.yul\":1652:1677   */\n      swap3\n      pop\n        /* \"#utility.yul\":1701:1702   */\n      dup3\n        /* \"#utility.yul\":1698:1699   */\n      dup3\n        /* \"#utility.yul\":1694:1703   */\n      sub\n        /* \"#utility.yul\":1686:1703   */\n      swap1\n      pop\n        /* \"#utility.yul\":1725:1726   */\n      dup2\n        /* \"#utility.yul\":1719:1723   */\n      dup2\n        /* \"#utility.yul\":1716:1727   */\n      gt\n        /* \"#utility.yul\":1713:1750   */\n      iszero\n      tag_139\n      jumpi\n        /* \"#utility.yul\":1730:1748   */\n      tag_140\n      tag_105\n      jump\t// in\n    tag_140:\n        /* \"#utility.yul\":1713:1750   */\n    tag_139:\n        /* \"#utility.yul\":1563:1757   */\n      swap3\n      swap2\n      pop\n      pop\n      jump\t// out\n        /* \"#utility.yul\":1763:1954   */\n    tag_38:\n        /* \"#utility.yul\":1803:1806   */\n      0x00\n        /* \"#utility.yul\":1822:1842   */\n      tag_142\n        /* \"#utility.yul\":1840:1841   */\n      dup3\n        /* \"#utility.yul\":1822:1842   */\n      tag_101\n      jump\t// in\n    tag_142:\n        /* \"#utility.yul\":1817:1842   */\n      swap2\n      pop\n        /* \"#utility.yul\":1856:1876   */\n      tag_143\n        /* \"#utility.yul\":1874:1875   */\n      dup4\n        /* \"#utility.yul\":1856:1876   */\n      tag_101\n      jump\t// in\n    tag_143:\n        /* \"#utility.yul\":1851:1876   */\n      swap3\n      pop\n        /* \"#utility.yul\":1899:1900   */\n      dup3\n        /* \"#utility.yul\":1896:1897   */\n      dup3\n        /* \"#utility.yul\":1892:1901   */\n      add\n        /* \"#utility.yul\":1885:1901   */\n      swap1\n      pop\n        /* \"#utility.yul\":1920:1923   */\n      dup1\n        /* \"#utility.yul\":1917:1918   */\n      dup3\n        /* \"#utility.yul\":1914:1924   */\n      gt\n        /* \"#utility.yul\":1911:1947   */\n      iszero\n      tag_144\n      jumpi\n        /* \"#utility.yul\":1927:1945   */\n      tag_145\n      tag_105\n      jump\t// in\n    tag_145:\n        /* \"#utility.yul\":1911:1947   */\n    tag_144:\n        /* \"#utility.yul\":1763:1954   */\n      swap3\n      swap2\n      pop\n      pop\n      jump\t// out\n        /* \"#utility.yul\":1960:2140   */\n    tag_41:\n        /* \"#utility.yul\":2008:2085   */\n      0x4e487b7100000000000000000000000000000000000000000000000000000000\n        /* \"#utility.yul\":2005:2006   */\n      0x00\n        /* \"#utility.yul\":1998:2086   */\n      mstore\n        /* \"#utility.yul\":2105:2109   */\n      0x32\n        /* \"#utility.yul\":2102:2103   */\n      0x04\n        /* \"#utility.yul\":2095:2110   */\n      mstore\n        /* \"#utility.yul\":2129:2133   */\n      0x24\n        /* \"#utility.yul\":2126:2127   */\n      0x00\n        /* \"#utility.yul\":2119:2134   */\n      revert\n        /* \"#utility.yul\":2146:2379   */\n    tag_62:\n        /* \"#utility.yul\":2185:2188   */\n      0x00\n        /* \"#utility.yul\":2208:2232   */\n      tag_148\n        /* \"#utility.yul\":2226:2231   */\n      dup3\n        /* \"#utility.yul\":2208:2232   */\n      tag_101\n      jump\t// in\n    tag_148:\n        /* \"#utility.yul\":2199:2232   */\n      swap2\n      pop\n        /* \"#utility.yul\":2254:2320   */\n      0xffffffffffffffffffffffffffffffffffffffffffffffffffffffffffffffff\n        /* \"#utility.yul\":2247:2252   */\n      dup3\n        /* \"#utility.yul\":2244:2321   */\n      sub\n        /* \"#utility.yul\":2241:2344   */\n      tag_149\n      jumpi\n        /* \"#utility.yul\":2324:2342   */\n      tag_150\n      tag_105\n      jump\t// in\n    tag_150:\n        /* \"#utility.yul\":2241:2344   */\n    tag_149:\n        /* \"#utility.yul\":2371:2372   */\n      0x01\n        /* \"#utility.yul\":2364:2369   */\n      dup3\n        /* \"#utility.yul\":2360:2373   */\n      add\n        /* \"#utility.yul\":2353:2373   */\n      swap1\n      pop\n        /* \"#utility.yul\":2146:2379   */\n      swap2\n      swap1\n      pop\n      jump\t// out\n        /* \"#utility.yul\":2385:2500   */\n    tag_106:\n        /* \"#utility.yul\":2453:2459   */\n      0x00\n        /* \"#utility.yul\":2487:2492   */\n      dup2\n        /* \"#utility.yul\":2481:2493   */\n      sload\n        /* \"#utility.yul\":2471:2493   */\n      swap1\n      pop\n        /* \"#utility.yul\":2385:2500   */\n      swap2\n      swap1\n      pop\n      jump\t// out\n        /* \"#utility.yul\":2506:2690   */\n    tag_107:\n        /* \"#utility.yul\":2605:2616   */\n      0x00\n        /* \"#utility.yul\":2639:2645   */\n      dup3\n        /* \"#utility.yul\":2634:2637   */\n      dup3\n        /* \"#utility.yul\":2627:2646   */\n      mstore\n        /* \"#utility.yul\":2679:2683   */\n      0x20\n        /* \"#utility.yul\":2674:2677   */\n      dup3\n        /* \"#utility.yul\":2670:2684   */\n      add\n        /* \"#utility.yul\":2655:2684   */\n      swap1\n      pop\n        /* \"#utility.yul\":2506:2690   */\n      swap3\n      swap2\n      pop\n      pop\n      jump\t// out\n        /* \"#utility.yul\":2696:2856   */\n    tag_108:\n        /* \"#utility.yul\":2764:2768   */\n      0x00\n        /* \"#utility.yul\":2787:2790   */\n      dup2\n        /* \"#utility.yul\":2779:2790   */\n      swap1\n      pop\n        /* \"#utility.yul\":2810:2813   */\n      dup2\n        /* \"#utility.yul\":2807:2808   */\n      0x00\n        /* \"#utility.yul\":2800:2814   */\n      mstore\n        /* \"#utility.yul\":2844:2848   */\n      0x20\n        /* \"#utility.yul\":2841:2842   */\n      0x00\n        /* \"#utility.yul\":2831:2849   */\n      keccak256\n        /* \"#utility.yul\":2823:2849   */\n      swap1\n      pop\n        /* \"#utility.yul\":2696:2856   */\n      swap2\n      swap1\n      pop\n      jump\t// out\n        /* \"#utility.yul\":2862:2970   */\n    tag_109:\n        /* \"#utility.yul\":2939:2963   */\n      tag_155\n        /* \"#utility.yul\":2957:2962   */\n      dup2\n        /* \"#utility.yul\":2939:2963   */\n      tag_101\n      jump\t// in\n    tag_155:\n        /* \"#utility.yul\":2934:2937   */\n      dup3\n        /* \"#utility.yul\":2927:2964   */\n      mstore\n        /* \"#utility.yul\":2862:2970   */\n      pop\n      pop\n      jump\t// out\n        /* \"#utility.yul\":2976:3155   */\n    tag_110:\n        /* \"#utility.yul\":3045:3055   */\n      0x00\n        /* \"#utility.yul\":3066:3112   */\n      tag_157\n        /* \"#utility.yul\":3108:3111   */\n      dup4\n        /* \"#utility.yul\":3100:3106   */\n      dup4\n        /* \"#utility.yul\":3066:3112   */\n      tag_109\n      jump\t// in\n    tag_157:\n        /* \"#utility.yul\":3144:3148   */\n      0x20\n        /* \"#utility.yul\":3139:3142   */\n      dup4\n        /* \"#utility.yul\":3135:3149   */\n      add\n        /* \"#utility.yul\":3121:3149   */\n      swap1\n      pop\n        /* \"#utility.yul\":2976:3155   */\n      swap3\n      swap2\n      pop\n      pop\n      jump\t// out\n        /* \"#utility.yul\":3161:3263   */\n    tag_111:\n        /* \"#utility.yul\":3203:3211   */\n      0x00\n        /* \"#utility.yul\":3250:3255   */\n      dup2\n        /* \"#utility.yul\":3247:3248   */\n      0x00\n        /* \"#utility.yul\":3243:3256   */\n      shr\n        /* \"#utility.yul\":3222:3256   */\n      swap1\n      pop\n        /* \"#utility.yul\":3161:3263   */\n      swap2\n      swap1\n      pop\n      jump\t// out\n        /* \"#utility.yul\":3269:3359   */\n    tag_112:\n        /* \"#utility.yul\":3319:3326   */\n      0x00\n        /* \"#utility.yul\":3348:3353   */\n      dup2\n        /* \"#utility.yul\":3337:3353   */\n      swap1\n      pop\n        /* \"#utility.yul\":3269:3359   */\n      swap2\n      swap1\n      pop\n      jump\t// out\n        /* \"#utility.yul\":3365:3531   */\n    tag_113:\n        /* \"#utility.yul\":3434:3439   */\n      0x00\n        /* \"#utility.yul\":3459:3525   */\n      tag_161\n        /* \"#utility.yul\":3490:3524   */\n      tag_162\n        /* \"#utility.yul\":3513:3523   */\n      dup4\n        /* \"#utility.yul\":3490:3524   */\n      tag_111\n      jump\t// in\n    tag_162:\n        /* \"#utility.yul\":3459:3525   */\n      tag_112\n      jump\t// in\n    tag_161:\n        /* \"#utility.yul\":3450:3525   */\n      swap1\n      pop\n        /* \"#utility.yul\":3365:3531   */\n      swap2\n      swap1\n      pop\n      jump\t// out\n        /* \"#utility.yul\":3537:3681   */\n    tag_114:\n        /* \"#utility.yul\":3592:3597   */\n      0x00\n        /* \"#utility.yul\":3617:3674   */\n      tag_164\n        /* \"#utility.yul\":3668:3672   */\n      dup3\n        /* \"#utility.yul\":3662:3673   */\n      sload\n        /* \"#utility.yul\":3617:3674   */\n      tag_113\n      jump\t// in\n    tag_164:\n        /* \"#utility.yul\":3608:3674   */\n      swap1\n      pop\n        /* \"#utility.yul\":3537:3681   */\n      swap2\n      swap1\n      pop\n      jump\t// out\n        /* \"#utility.yul\":3687:3801   */\n    tag_115:\n        /* \"#utility.yul\":3758:3762   */\n      0x00\n        /* \"#utility.yul\":3790:3794   */\n      0x01\n        /* \"#utility.yul\":3785:3788   */\n      dup3\n        /* \"#utility.yul\":3781:3795   */\n      add\n        /* \"#utility.yul\":3773:3795   */\n      swap1\n      pop\n        /* \"#utility.yul\":3687:3801   */\n      swap2\n      swap1\n      pop\n      jump\t// out\n        /* \"#utility.yul\":3837:4604   */\n    tag_116:\n        /* \"#utility.yul\":3957:3960   */\n      0x00\n        /* \"#utility.yul\":3986:4041   */\n      tag_167\n        /* \"#utility.yul\":4035:4040   */\n      dup3\n        /* \"#utility.yul\":3986:4041   */\n      tag_106\n      jump\t// in\n    tag_167:\n        /* \"#utility.yul\":4057:4143   */\n      tag_168\n        /* \"#utility.yul\":4136:4142   */\n      dup2\n        /* \"#utility.yul\":4131:4134   */\n      dup6\n        /* \"#utility.yul\":4057:4143   */\n      tag_107\n      jump\t// in\n    tag_168:\n        /* \"#utility.yul\":4050:4143   */\n      swap4\n      pop\n        /* \"#utility.yul\":4167:4224   */\n      tag_169\n        /* \"#utility.yul\":4218:4223   */\n      dup4\n        /* \"#utility.yul\":4167:4224   */\n      tag_108\n      jump\t// in\n    tag_169:\n        /* \"#utility.yul\":4247:4254   */\n      dup1\n        /* \"#utility.yul\":4278:4279   */\n      0x00\n        /* \"#utility.yul\":4263:4579   */\n    tag_170:\n        /* \"#utility.yul\":4288:4294   */\n      dup4\n        /* \"#utility.yul\":4285:4286   */\n      dup2\n        /* \"#utility.yul\":4282:4295   */\n      lt\n        /* \"#utility.yul\":4263:4579   */\n      iszero\n      tag_172\n      jumpi\n        /* \"#utility.yul\":4358:4402   */\n      tag_173\n        /* \"#utility.yul\":4395:4401   */\n      dup3\n        /* \"#utility.yul\":4358:4402   */\n      tag_114\n      jump\t// in\n    tag_173:\n        /* \"#utility.yul\":4422:4485   */\n      tag_174\n        /* \"#utility.yul\":4481:4484   */\n      dup9\n        /* \"#utility.yul\":4466:4479   */\n      dup3\n        /* \"#utility.yul\":4422:4485   */\n      tag_110\n      jump\t// in\n    tag_174:\n        /* \"#utility.yul\":4415:4485   */\n      swap8\n      pop\n        /* \"#utility.yul\":4508:4569   */\n      tag_175\n        /* \"#utility.yul\":4562:4568   */\n      dup4\n        /* \"#utility.yul\":4508:4569   */\n      tag_115\n      jump\t// in\n    tag_175:\n        /* \"#utility.yul\":4498:4569   */\n      swap3\n      pop\n        /* \"#utility.yul\":4323:4579   */\n      pop\n        /* \"#utility.yul\":4310:4311   */\n      0x01\n        /* \"#utility.yul\":4307:4308   */\n      dup2\n        /* \"#utility.yul\":4303:4312   */\n      add\n        /* \"#utility.yul\":4298:4312   */\n      swap1\n      pop\n        /* \"#utility.yul\":4263:4579   */\n      jump(tag_170)\n    tag_172:\n        /* \"#utility.yul\":4267:4281   */\n      pop\n        /* \"#utility.yul\":4595:4598   */\n      dup6\n        /* \"#utility.yul\":4588:4598   */\n      swap4\n      pop\n        /* \"#utility.yul\":3962:4604   */\n      pop\n      pop\n      pop\n        /* \"#utility.yul\":3837:4604   */\n      swap3\n      swap2\n      pop\n      pop\n      jump\t// out\n        /* \"#utility.yul\":4610:4985   */\n    tag_65:\n        /* \"#utility.yul\":4754:4758   */\n      0x00\n        /* \"#utility.yul\":4792:4794   */\n      0x20\n        /* \"#utility.yul\":4781:4790   */\n      dup3\n        /* \"#utility.yul\":4777:4795   */\n      add\n        /* \"#utility.yul\":4769:4795   */\n      swap1\n      pop\n        /* \"#utility.yul\":4841:4850   */\n      dup2\n        /* \"#utility.yul\":4835:4839   */\n      dup2\n        /* \"#utility.yul\":4831:4851   */\n      sub\n        /* \"#utility.yul\":4827:4828   */\n      0x00\n        /* \"#utility.yul\":4816:4825   */\n      dup4\n        /* \"#utility.yul\":4812:4829   */\n      add\n        /* \"#utility.yul\":4805:4852   */\n      mstore\n        /* \"#utility.yul\":4869:4978   */\n      tag_177\n        /* \"#utility.yul\":4973:4977   */\n      dup2\n        /* \"#utility.yul\":4964:4970   */\n      dup5\n        /* \"#utility.yul\":4869:4978   */\n      tag_116\n      jump\t// in\n    tag_177:\n        /* \"#utility.yul\":4861:4978   */\n      swap1\n      pop\n        /* \"#utility.yul\":4610:4985   */\n      swap3\n      swap2\n      pop\n      pop\n      jump\t// out\n        /* \"#utility.yul\":4991:5171   */\n    tag_95:\n        /* \"#utility.yul\":5039:5116   */\n      0x4e487b7100000000000000000000000000000000000000000000000000000000\n        /* \"#utility.yul\":5036:5037   */\n      0x00\n        /* \"#utility.yul\":5029:5117   */\n      mstore\n        /* \"#utility.yul\":5136:5140   */\n      0x31\n        /* \"#utility.yul\":5133:5134   */\n      0x04\n        /* \"#utility.yul\":5126:5141   */\n      mstore\n        /* \"#utility.yul\":5160:5164   */\n      0x24\n        /* \"#utility.yul\":5157:5158   */\n      0x00\n        /* \"#utility.yul\":5150:5165   */\n      revert\n\n    auxdata: 0xa26469706673582212202d432ba4c74156efec79021a670df4250567c64518e22d42937ec0afdba277f464736f6c63430008120033\n}\n",
				"bytecode": {
					"linkReferences": {},
					"object": "608060405234801561001057600080fd5b50604051806101400160405280600a61ffff168152602001600261ffff168152602001602261ffff168152602001601861ffff168152602001600561ffff16815260200161029861ffff168152602001600661ffff168152602001602e61ffff168152602001602361ffff168152602001600661ffff16815250600090600a61009a9291906100a0565b50610110565b8280548282559060005260206000209081019282156100e2579160200282015b828111156100e1578251829061ffff169055916020019190600101906100c0565b5b5090506100ef91906100f3565b5090565b5b8082111561010c5760008160009055506001016100f4565b5090565b61073d8061011f6000396000f3fe608060405234801561001057600080fd5b50600436106100415760003560e01c80635b9af12b146100465780637f6934ff14610062578063cc3e57d91461006c575b600080fd5b610060600480360381019061005b9190610443565b61009c565b005b61006a6100c8565b005b61008660048036038101906100819190610443565b6100de565b604051610093919061047f565b60405180910390f35b600081908060018154018082558091505060019003906000526020600020016000909190919091505550565b6100d26000610102565b6100dc6000610294565b565b600081815481106100ee57600080fd5b906000526020600020016000915090505481565b60008180549050905060005b60018261011b91906104c9565b8110156102585760005b6001828461013391906104c9565b61013d91906104c9565b811015610244578360018261015291906104fd565b8154811061016357610162610531565b5b906000526020600020015484828154811061018157610180610531565b5b9060005260206000200154111561023157836001826101a091906104fd565b815481106101b1576101b0610531565b5b90600052602060002001548482815481106101cf576101ce610531565b5b90600052602060002001548583815481106101ed576101ec610531565b5b9060005260206000200160008760018661020791906104fd565b8154811061021857610217610531565b5b9060005260206000200160008491905055839190505550505b808061023c90610560565b915050610125565b50808061025090610560565b91505061010e565b507f5075bd6f85a03a4e981a85570fcadb5b0739a53001e71f2a7b715cb874addb0d8260405161028891906106b6565b60405180910390a15050565b600081805490509050600181116102ab5750610405565b6000600190506000600190505b82811015610391576000805b83811015610329578581815481106102df576102de610531565b5b90600052602060002001548684815481106102fd576102fc610531565b5b9060005260206000200154036103165760019150610329565b808061032190610560565b9150506102c4565b508061037d5784828154811061034257610341610531565b5b90600052602060002001548584815481106103605761035f610531565b5b9060005260206000200181905550828061037990610560565b9350505b50808061038990610560565b9150506102b8565b505b80838054905011156103cb57828054806103b0576103af6106d8565b5b60019003818190600052602060002001600090559055610393565b7f012bbde505ecebf1bf859feb7e02c232253498a65f8ac825df8df92dbbee4441836040516103fa91906106b6565b60405180910390a150505b50565b600080fd5b6000819050919050565b6104208161040d565b811461042b57600080fd5b50565b60008135905061043d81610417565b92915050565b60006020828403121561045957610458610408565b5b60006104678482850161042e565b91505092915050565b6104798161040d565b82525050565b60006020820190506104946000830184610470565b92915050565b7f4e487b7100000000000000000000000000000000000000000000000000000000600052601160045260246000fd5b60006104d48261040d565b91506104df8361040d565b92508282039050818111156104f7576104f661049a565b5b92915050565b60006105088261040d565b91506105138361040d565b925082820190508082111561052b5761052a61049a565b5b92915050565b7f4e487b7100000000000000000000000000000000000000000000000000000000600052603260045260246000fd5b600061056b8261040d565b91507fffffffffffffffffffffffffffffffffffffffffffffffffffffffffffffffff820361059d5761059c61049a565b5b600182019050919050565b600081549050919050565b600082825260208201905092915050565b60008190508160005260206000209050919050565b6105e28161040d565b82525050565b60006105f483836105d9565b60208301905092915050565b60008160001c9050919050565b6000819050919050565b600061062a61062583610600565b61060d565b9050919050565b600061063d8254610617565b9050919050565b6000600182019050919050565b600061065c826105a8565b61066681856105b3565b9350610671836105c4565b8060005b838110156106a95761068682610631565b61069088826105e8565b975061069b83610644565b925050600181019050610675565b5085935050505092915050565b600060208201905081810360008301526106d08184610651565b905092915050565b7f4e487b7100000000000000000000000000000000000000000000000000000000600052603160045260246000fdfea26469706673582212202d432ba4c74156efec79021a670df4250567c64518e22d42937ec0afdba277f464736f6c63430008120033",
					"opcodes": "PUSH1 0x80 PUSH1 0x40 MSTORE CALLVALUE DUP1 ISZERO PUSH2 0x10 JUMPI PUSH1 0x0 DUP1 REVERT JUMPDEST POP PUSH1 0x40 MLOAD DUP1 PUSH2 0x140 ADD PUSH1 0x40 MSTORE DUP1 PUSH1 0xA PUSH2 0xFFFF AND DUP2 MSTORE PUSH1 0x20 ADD PUSH1 0x2 PUSH2 0xFFFF AND DUP2 MSTORE PUSH1 0x20 ADD PUSH1 0x22 PUSH2 0xFFFF AND DUP2 MSTORE PUSH1 0x20 ADD PUSH1 0x18 PUSH2 0xFFFF AND DUP2 MSTORE PUSH1 0x20 ADD PUSH1 0x5 PUSH2 0xFFFF AND DUP2 MSTORE PUSH1 0x20 ADD PUSH2 0x298 PUSH2 0xFFFF AND DUP2 MSTORE PUSH1 0x20 ADD PUSH1 0x6 PUSH2 0xFFFF AND DUP2 MSTORE PUSH1 0x20 ADD PUSH1 0x2E PUSH2 0xFFFF AND DUP2 MSTORE PUSH1 0x20 ADD PUSH1 0x23 PUSH2 0xFFFF AND DUP2 MSTORE PUSH1 0x20 ADD PUSH1 0x6 PUSH2 0xFFFF AND DUP2 MSTORE POP PUSH1 0x0 SWAP1 PUSH1 0xA PUSH2 0x9A SWAP3 SWAP2 SWAP1 PUSH2 0xA0 JUMP JUMPDEST POP PUSH2 0x110 JUMP JUMPDEST DUP3 DUP1 SLOAD DUP3 DUP3 SSTORE SWAP1 PUSH1 0x0 MSTORE PUSH1 0x20 PUSH1 0x0 KECCAK256 SWAP1 DUP2 ADD SWAP3 DUP3 ISZERO PUSH2 0xE2 JUMPI SWAP2 PUSH1 0x20 MUL DUP3 ADD JUMPDEST DUP3 DUP2 GT ISZERO PUSH2 0xE1 JUMPI DUP3 MLOAD DUP3 SWAP1 PUSH2 0xFFFF AND SWAP1 SSTORE SWAP2 PUSH1 0x20 ADD SWAP2 SWAP1 PUSH1 0x1 ADD SWAP1 PUSH2 0xC0 JUMP JUMPDEST JUMPDEST POP SWAP1 POP PUSH2 0xEF SWAP2 SWAP1 PUSH2 0xF3 JUMP JUMPDEST POP SWAP1 JUMP JUMPDEST JUMPDEST DUP1 DUP3 GT ISZERO PUSH2 0x10C JUMPI PUSH1 0x0 DUP2 PUSH1 0x0 SWAP1 SSTORE POP PUSH1 0x1 ADD PUSH2 0xF4 JUMP JUMPDEST POP SWAP1 JUMP JUMPDEST PUSH2 0x73D DUP1 PUSH2 0x11F PUSH1 0x0 CODECOPY PUSH1 0x0 RETURN INVALID PUSH1 0x80 PUSH1 0x40 MSTORE CALLVALUE DUP1 ISZERO PUSH2 0x10 JUMPI PUSH1 0x0 DUP1 REVERT JUMPDEST POP PUSH1 0x4 CALLDATASIZE LT PUSH2 0x41 JUMPI PUSH1 0x0 CALLDATALOAD PUSH1 0xE0 SHR DUP1 PUSH4 0x5B9AF12B EQ PUSH2 0x46 JUMPI DUP1 PUSH4 0x7F6934FF EQ PUSH2 0x62 JUMPI DUP1 PUSH4 0xCC3E57D9 EQ PUSH2 0x6C JUMPI JUMPDEST PUSH1 0x0 DUP1 REVERT JUMPDEST PUSH2 0x60 PUSH1 0x4 DUP1 CALLDATASIZE SUB DUP2 ADD SWAP1 PUSH2 0x5B SWAP2 SWAP1 PUSH2 0x443 JUMP JUMPDEST PUSH2 0x9C JUMP JUMPDEST STOP JUMPDEST PUSH2 0x6A PUSH2 0xC8 JUMP JUMPDEST STOP JUMPDEST PUSH2 0x86 PUSH1 0x4 DUP1 CALLDATASIZE SUB DUP2 ADD SWAP1 PUSH2 0x81 SWAP2 SWAP1 PUSH2 0x443 JUMP JUMPDEST PUSH2 0xDE JUMP JUMPDEST PUSH1 0x40 MLOAD PUSH2 0x93 SWAP2 SWAP1 PUSH2 0x47F JUMP JUMPDEST PUSH1 0x40 MLOAD DUP1 SWAP2 SUB SWAP1 RETURN JUMPDEST PUSH1 0x0 DUP2 SWAP1 DUP1 PUSH1 0x1 DUP2 SLOAD ADD DUP1 DUP3 SSTORE DUP1 SWAP2 POP POP PUSH1 0x1 SWAP1 SUB SWAP1 PUSH1 0x0 MSTORE PUSH1 0x20 PUSH1 0x0 KECCAK256 ADD PUSH1 0x0 SWAP1 SWAP2 SWAP1 SWAP2 SWAP1 SWAP2 POP SSTORE POP JUMP JUMPDEST PUSH2 0xD2 PUSH1 0x0 PUSH2 0x102 JUMP JUMPDEST PUSH2 0xDC PUSH1 0x0 PUSH2 0x294 JUMP JUMPDEST JUMP JUMPDEST PUSH1 0x0 DUP2 DUP2 SLOAD DUP2 LT PUSH2 0xEE JUMPI PUSH1 0x0 DUP1 REVERT JUMPDEST SWAP1 PUSH1 0x0 MSTORE PUSH1 0x20 PUSH1 0x0 KECCAK256 ADD PUSH1 0x0 SWAP2 POP SWAP1 POP SLOAD DUP2 JUMP JUMPDEST PUSH1 0x0 DUP2 DUP1 SLOAD SWAP1 POP SWAP1 POP PUSH1 0x0 JUMPDEST PUSH1 0x1 DUP3 PUSH2 0x11B SWAP2 SWAP1 PUSH2 0x4C9 JUMP JUMPDEST DUP2 LT ISZERO PUSH2 0x258 JUMPI PUSH1 0x0 JUMPDEST PUSH1 0x1 DUP3 DUP5 PUSH2 0x133 SWAP2 SWAP1 PUSH2 0x4C9 JUMP JUMPDEST PUSH2 0x13D SWAP2 SWAP1 PUSH2 0x4C9 JUMP JUMPDEST DUP2 LT ISZERO PUSH2 0x244 JUMPI DUP4 PUSH1 0x1 DUP3 PUSH2 0x152 SWAP2 SWAP1 PUSH2 0x4FD JUMP JUMPDEST DUP2 SLOAD DUP2 LT PUSH2 0x163 JUMPI PUSH2 0x162 PUSH2 0x531 JUMP JUMPDEST JUMPDEST SWAP1 PUSH1 0x0 MSTORE PUSH1 0x20 PUSH1 0x0 KECCAK256 ADD SLOAD DUP5 DUP3 DUP2 SLOAD DUP2 LT PUSH2 0x181 JUMPI PUSH2 0x180 PUSH2 0x531 JUMP JUMPDEST JUMPDEST SWAP1 PUSH1 0x0 MSTORE PUSH1 0x20 PUSH1 0x0 KECCAK256 ADD SLOAD GT ISZERO PUSH2 0x231 JUMPI DUP4 PUSH1 0x1 DUP3 PUSH2 0x1A0 SWAP2 SWAP1 PUSH2 0x4FD JUMP JUMPDEST DUP2 SLOAD DUP2 LT PUSH2 0x1B1 JUMPI PUSH2 0x1B0 PUSH2 0x531 JUMP JUMPDEST JUMPDEST SWAP1 PUSH1 0x0 MSTORE PUSH1 0x20 PUSH1 0x0 KECCAK256 ADD SLOAD DUP5 DUP3 DUP2 SLOAD DUP2 LT PUSH2 0x1CF JUMPI PUSH2 0x1CE PUSH2 0x531 JUMP JUMPDEST JUMPDEST SWAP1 PUSH1 0x0 MSTORE PUSH1 0x20 PUSH1 0x0 KECCAK256 ADD SLOAD DUP6 DUP4 DUP2 SLOAD DUP2 LT PUSH2 0x1ED JUMPI PUSH2 0x1EC PUSH2 0x531 JUMP JUMPDEST JUMPDEST SWAP1 PUSH1 0x0 MSTORE PUSH1 0x20 PUSH1 0x0 KECCAK256 ADD PUSH1 0x0 DUP8 PUSH1 0x1 DUP7 PUSH2 0x207 SWAP2 SWAP1 PUSH2 0x4FD JUMP JUMPDEST DUP2 SLOAD DUP2 LT PUSH2 0x218 JUMPI PUSH2 0x217 PUSH2 0x531 JUMP JUMPDEST JUMPDEST SWAP1 PUSH1 0x0 MSTORE PUSH1 0x20 PUSH1 0x0 KECCAK256 ADD PUSH1 0x0 DUP5 SWAP2 SWAP1 POP SSTORE DUP4 SWAP2 SWAP1 POP SSTORE POP POP JUMPDEST DUP1 DUP1 PUSH2 0x23C SWAP1 PUSH2 0x560 JUMP JUMPDEST SWAP2 POP POP PUSH2 0x125 JUMP JUMPDEST POP DUP1 DUP1 PUSH2 0x250 SWAP1 PUSH2 0x560 JUMP JUMPDEST SWAP2 POP POP PUSH2 0x10E JUMP JUMPDEST POP PUSH32 0x5075BD6F85A03A4E981A85570FCADB5B0739A53001E71F2A7B715CB874ADDB0D DUP3 PUSH1 0x40 MLOAD PUSH2 0x288 SWAP2 SWAP1 PUSH2 0x6B6 JUMP JUMPDEST PUSH1 0x40 MLOAD DUP1 SWAP2 SUB SWAP1 LOG1 POP POP JUMP JUMPDEST PUSH1 0x0 DUP2 DUP1 SLOAD SWAP1 POP SWAP1 POP PUSH1 0x1 DUP2 GT PUSH2 0x2AB JUMPI POP PUSH2 0x405 JUMP JUMPDEST PUSH1 0x0 PUSH1 0x1 SWAP1 POP PUSH1 0x0 PUSH1 0x1 SWAP1 POP JUMPDEST DUP3 DUP2 LT ISZERO PUSH2 0x391 JUMPI PUSH1 0x0 DUP1 JUMPDEST DUP4 DUP2 LT ISZERO PUSH2 0x329 JUMPI DUP6 DUP2 DUP2 SLOAD DUP2 LT PUSH2 0x2DF JUMPI PUSH2 0x2DE PUSH2 0x531 JUMP JUMPDEST JUMPDEST SWAP1 PUSH1 0x0 MSTORE PUSH1 0x20 PUSH1 0x0 KECCAK256 ADD SLOAD DUP7 DUP5 DUP2 SLOAD DUP2 LT PUSH2 0x2FD JUMPI PUSH2 0x2FC PUSH2 0x531 JUMP JUMPDEST JUMPDEST SWAP1 PUSH1 0x0 MSTORE PUSH1 0x20 PUSH1 0x0 KECCAK256 ADD SLOAD SUB PUSH2 0x316 JUMPI PUSH1 0x1 SWAP2 POP PUSH2 0x329 JUMP JUMPDEST DUP1 DUP1 PUSH2 0x321 SWAP1 PUSH2 0x560 JUMP JUMPDEST SWAP2 POP POP PUSH2 0x2C4 JUMP JUMPDEST POP DUP1 PUSH2 0x37D JUMPI DUP5 DUP3 DUP2 SLOAD DUP2 LT PUSH2 0x342 JUMPI PUSH2 0x341 PUSH2 0x531 JUMP JUMPDEST JUMPDEST SWAP1 PUSH1 0x0 MSTORE PUSH1 0x20 PUSH1 0x0 KECCAK256 ADD SLOAD DUP6 DUP5 DUP2 SLOAD DUP2 LT PUSH2 0x360 JUMPI PUSH2 0x35F PUSH2 0x531 JUMP JUMPDEST JUMPDEST SWAP1 PUSH1 0x0 MSTORE PUSH1 0x20 PUSH1 0x0 KECCAK256 ADD DUP2 SWAP1 SSTORE POP DUP3 DUP1 PUSH2 0x379 SWAP1 PUSH2 0x560 JUMP JUMPDEST SWAP4 POP POP JUMPDEST POP DUP1 DUP1 PUSH2 0x389 SWAP1 PUSH2 0x560 JUMP JUMPDEST SWAP2 POP POP PUSH2 0x2B8 JUMP JUMPDEST POP JUMPDEST DUP1 DUP4 DUP1 SLOAD SWAP1 POP GT ISZERO PUSH2 0x3CB JUMPI DUP3 DUP1 SLOAD DUP1 PUSH2 0x3B0 JUMPI PUSH2 0x3AF PUSH2 0x6D8 JUMP JUMPDEST JUMPDEST PUSH1 0x1 SWAP1 SUB DUP2 DUP2 SWAP1 PUSH1 0x0 MSTORE PUSH1 0x20 PUSH1 0x0 KECCAK256 ADD PUSH1 0x0 SWAP1 SSTORE SWAP1 SSTORE PUSH2 0x393 JUMP JUMPDEST PUSH32 0x12BBDE505ECEBF1BF859FEB7E02C232253498A65F8AC825DF8DF92DBBEE4441 DUP4 PUSH1 0x40 MLOAD PUSH2 0x3FA SWAP2 SWAP1 PUSH2 0x6B6 JUMP JUMPDEST PUSH1 0x40 MLOAD DUP1 SWAP2 SUB SWAP1 LOG1 POP POP JUMPDEST POP JUMP JUMPDEST PUSH1 0x0 DUP1 REVERT JUMPDEST PUSH1 0x0 DUP2 SWAP1 POP SWAP2 SWAP1 POP JUMP JUMPDEST PUSH2 0x420 DUP2 PUSH2 0x40D JUMP JUMPDEST DUP2 EQ PUSH2 0x42B JUMPI PUSH1 0x0 DUP1 REVERT JUMPDEST POP JUMP JUMPDEST PUSH1 0x0 DUP2 CALLDATALOAD SWAP1 POP PUSH2 0x43D DUP2 PUSH2 0x417 JUMP JUMPDEST SWAP3 SWAP2 POP POP JUMP JUMPDEST PUSH1 0x0 PUSH1 0x20 DUP3 DUP5 SUB SLT ISZERO PUSH2 0x459 JUMPI PUSH2 0x458 PUSH2 0x408 JUMP JUMPDEST JUMPDEST PUSH1 0x0 PUSH2 0x467 DUP5 DUP3 DUP6 ADD PUSH2 0x42E JUMP JUMPDEST SWAP2 POP POP SWAP3 SWAP2 POP POP JUMP JUMPDEST PUSH2 0x479 DUP2 PUSH2 0x40D JUMP JUMPDEST DUP3 MSTORE POP POP JUMP JUMPDEST PUSH1 0x0 PUSH1 0x20 DUP3 ADD SWAP1 POP PUSH2 0x494 PUSH1 0x0 DUP4 ADD DUP5 PUSH2 0x470 JUMP JUMPDEST SWAP3 SWAP2 POP POP JUMP JUMPDEST PUSH32 0x4E487B7100000000000000000000000000000000000000000000000000000000 PUSH1 0x0 MSTORE PUSH1 0x11 PUSH1 0x4 MSTORE PUSH1 0x24 PUSH1 0x0 REVERT JUMPDEST PUSH1 0x0 PUSH2 0x4D4 DUP3 PUSH2 0x40D JUMP JUMPDEST SWAP2 POP PUSH2 0x4DF DUP4 PUSH2 0x40D JUMP JUMPDEST SWAP3 POP DUP3 DUP3 SUB SWAP1 POP DUP2 DUP2 GT ISZERO PUSH2 0x4F7 JUMPI PUSH2 0x4F6 PUSH2 0x49A JUMP JUMPDEST JUMPDEST SWAP3 SWAP2 POP POP JUMP JUMPDEST PUSH1 0x0 PUSH2 0x508 DUP3 PUSH2 0x40D JUMP JUMPDEST SWAP2 POP PUSH2 0x513 DUP4 PUSH2 0x40D JUMP JUMPDEST SWAP3 POP DUP3 DUP3 ADD SWAP1 POP DUP1 DUP3 GT ISZERO PUSH2 0x52B JUMPI PUSH2 0x52A PUSH2 0x49A JUMP JUMPDEST JUMPDEST SWAP3 SWAP2 POP POP JUMP JUMPDEST PUSH32 0x4E487B7100000000000000000000000000000000000000000000000000000000 PUSH1 0x0 MSTORE PUSH1 0x32 PUSH1 0x4 MSTORE PUSH1 0x24 PUSH1 0x0 REVERT JUMPDEST PUSH1 0x0 PUSH2 0x56B DUP3 PUSH2 0x40D JUMP JUMPDEST SWAP2 POP PUSH32 0xFFFFFFFFFFFFFFFFFFFFFFFFFFFFFFFFFFFFFFFFFFFFFFFFFFFFFFFFFFFFFFFF DUP3 SUB PUSH2 0x59D JUMPI PUSH2 0x59C PUSH2 0x49A JUMP JUMPDEST JUMPDEST PUSH1 0x1 DUP3 ADD SWAP1 POP SWAP2 SWAP1 POP JUMP JUMPDEST PUSH1 0x0 DUP2 SLOAD SWAP1 POP SWAP2 SWAP1 POP JUMP JUMPDEST PUSH1 0x0 DUP3 DUP3 MSTORE PUSH1 0x20 DUP3 ADD SWAP1 POP SWAP3 SWAP2 POP POP JUMP JUMPDEST PUSH1 0x0 DUP2 SWAP1 POP DUP2 PUSH1 0x0 MSTORE PUSH1 0x20 PUSH1 0x0 KECCAK256 SWAP1 POP SWAP2 SWAP1 POP JUMP JUMPDEST PUSH2 0x5E2 DUP2 PUSH2 0x40D JUMP JUMPDEST DUP3 MSTORE POP POP JUMP JUMPDEST PUSH1 0x0 PUSH2 0x5F4 DUP4 DUP4 PUSH2 0x5D9 JUMP JUMPDEST PUSH1 0x20 DUP4 ADD SWAP1 POP SWAP3 SWAP2 POP POP JUMP JUMPDEST PUSH1 0x0 DUP2 PUSH1 0x0 SHR SWAP1 POP SWAP2 SWAP1 POP JUMP JUMPDEST PUSH1 0x0 DUP2 SWAP1 POP SWAP2 SWAP1 POP JUMP JUMPDEST PUSH1 0x0 PUSH2 0x62A PUSH2 0x625 DUP4 PUSH2 0x600 JUMP JUMPDEST PUSH2 0x60D JUMP JUMPDEST SWAP1 POP SWAP2 SWAP1 POP JUMP JUMPDEST PUSH1 0x0 PUSH2 0x63D DUP3 SLOAD PUSH2 0x617 JUMP JUMPDEST SWAP1 POP SWAP2 SWAP1 POP JUMP JUMPDEST PUSH1 0x0 PUSH1 0x1 DUP3 ADD SWAP1 POP SWAP2 SWAP1 POP JUMP JUMPDEST PUSH1 0x0 PUSH2 0x65C DUP3 PUSH2 0x5A8 JUMP JUMPDEST PUSH2 0x666 DUP2 DUP6 PUSH2 0x5B3 JUMP JUMPDEST SWAP4 POP PUSH2 0x671 DUP4 PUSH2 0x5C4 JUMP JUMPDEST DUP1 PUSH1 0x0 JUMPDEST DUP4 DUP2 LT ISZERO PUSH2 0x6A9 JUMPI PUSH2 0x686 DUP3 PUSH2 0x631 JUMP JUMPDEST PUSH2 0x690 DUP9 DUP3 PUSH2 0x5E8 JUMP JUMPDEST SWAP8 POP PUSH2 0x69B DUP4 PUSH2 0x644 JUMP JUMPDEST SWAP3 POP POP PUSH1 0x1 DUP2 ADD SWAP1 POP PUSH2 0x675 JUMP JUMPDEST POP DUP6 SWAP4 POP POP POP POP SWAP3 SWAP2 POP POP JUMP JUMPDEST PUSH1 0x0 PUSH1 0x20 DUP3 ADD SWAP1 POP DUP2 DUP2 SUB PUSH1 0x0 DUP4 ADD MSTORE PUSH2 0x6D0 DUP2 DUP5 PUSH2 0x651 JUMP JUMPDEST SWAP1 POP SWAP3 SWAP2 POP POP JUMP JUMPDEST PUSH32 0x4E487B7100000000000000000000000000000000000000000000000000000000 PUSH1 0x0 MSTORE PUSH1 0x31 PUSH1 0x4 MSTORE PUSH1 0x24 PUSH1 0x0 REVERT INVALID LOG2 PUSH5 0x6970667358 0x22 SLT KECCAK256 0x2D NUMBER 0x2B LOG4 0xC7 COINBASE JUMP 0xEF 0xEC PUSH26 0x21A670DF4250567C64518E22D42937EC0AFDBA277F464736F6C PUSH4 0x43000812 STOP CALLER "
				},
				"gasEstimates": {
					"creation": {
						"codeDepositCost": "370600",
						"executionCost": "infinite",
						"totalCost": "infinite"
					},
					"external": {
						"addValue(uint256)": "46807",
						"myArray(uint256)": "infinite",
						"sortAndRemoveDuplicates()": "infinite"
					}
				},
				"methodIdentifiers": {
					"addValue(uint256)": "5b9af12b",
					"myArray(uint256)": "cc3e57d9",
					"sortAndRemoveDuplicates()": "7f6934ff"
				}
			},
			"storageLayout": {
				"storage": [
					{
						"astId": 190,
						"contract": "ArrayLab1.sol:SortingAndDuplicates",
						"label": "myArray",
						"offset": 0,
						"slot": "0",
						"type": "t_array(t_uint256)dyn_storage"
					}
				],
				"types": {
					"t_array(t_uint256)dyn_storage": {
						"base": "t_uint256",
						"encoding": "dynamic_array",
						"label": "uint256[]",
						"numberOfBytes": "32"
					},
					"t_uint256": {
						"encoding": "inplace",
						"label": "uint256",
						"numberOfBytes": "32"
					}
				}
			},
			"userdoc": {
				"kind": "user",
				"methods": {},
				"version": 1
			}
		}
	}
}