{
	"test1.sol": {
		"Escrow": {
			"abi": [
				{
					"inputs": [
						{
							"internalType": "address",
							"name": "_buyer",
							"type": "address"
						},
						{
							"internalType": "address payable",
							"name": "_seller",
							"type": "address"
						}
					],
					"stateMutability": "nonpayable",
					"type": "constructor"
				},
				{
					"inputs": [],
					"name": "buyer",
					"outputs": [
						{
							"internalType": "address",
							"name": "",
							"type": "address"
						}
					],
					"stateMutability": "view",
					"type": "function"
				},
				{
					"inputs": [],
					"name": "confirmDelivery",
					"outputs": [],
					"stateMutability": "nonpayable",
					"type": "function"
				},
				{
					"inputs": [],
					"name": "currentState",
					"outputs": [
						{
							"internalType": "enum Escrow.State",
							"name": "",
							"type": "uint8"
						}
					],
					"stateMutability": "view",
					"type": "function"
				},
				{
					"inputs": [],
					"name": "deposit",
					"outputs": [],
					"stateMutability": "payable",
					"type": "function"
				},
				{
					"inputs": [],
					"name": "seller",
					"outputs": [
						{
							"internalType": "address payable",
							"name": "",
							"type": "address"
						}
					],
					"stateMutability": "view",
					"type": "function"
				}
			],
			"devdoc": {
				"kind": "dev",
				"methods": {},
				"version": 1
			},
			"evm": {
				"assembly": "    /* \"test1.sol\":56:1721  contract Escrow {... */\n  mstore(0x40, 0x80)\n    /* \"test1.sol\":504:617  constructor(address _buyer, address payable _seller) public {... */\n  callvalue\n  dup1\n  iszero\n  tag_1\n  jumpi\n  0x00\n  dup1\n  revert\ntag_1:\n  pop\n  mload(0x40)\n  sub(codesize, bytecodeSize)\n  dup1\n  bytecodeSize\n  dup4\n  codecopy\n  dup2\n  dup2\n  add\n  0x40\n  mstore\n  0x40\n  dup2\n  lt\n  iszero\n  tag_2\n  jumpi\n  0x00\n  dup1\n  revert\ntag_2:\n  dup2\n  add\n  swap1\n  dup1\n  dup1\n  mload\n  swap1\n  0x20\n  add\n  swap1\n  swap3\n  swap2\n  swap1\n  dup1\n  mload\n  swap1\n  0x20\n  add\n  swap1\n  swap3\n  swap2\n  swap1\n  pop\n  pop\n  pop\n    /* \"test1.sol\":580:586  _buyer */\n  dup2\n    /* \"test1.sol\":572:577  buyer */\n  0x00\n  0x01\n    /* \"test1.sol\":572:586  buyer = _buyer */\n  0x0100\n  exp\n  dup2\n  sload\n  dup2\n  0xffffffffffffffffffffffffffffffffffffffff\n  mul\n  not\n  and\n  swap1\n  dup4\n  0xffffffffffffffffffffffffffffffffffffffff\n  and\n  mul\n  or\n  swap1\n  sstore\n  pop\n    /* \"test1.sol\":603:610  _seller */\n  dup1\n    /* \"test1.sol\":594:600  seller */\n  0x01\n  0x00\n    /* \"test1.sol\":594:610  seller = _seller */\n  0x0100\n  exp\n  dup2\n  sload\n  dup2\n  0xffffffffffffffffffffffffffffffffffffffff\n  mul\n  not\n  and\n  swap1\n  dup4\n  0xffffffffffffffffffffffffffffffffffffffff\n  and\n  mul\n  or\n  swap1\n  sstore\n  pop\n    /* \"test1.sol\":504:617  constructor(address _buyer, address payable _seller) public {... */\n  pop\n  pop\n    /* \"test1.sol\":56:1721  contract Escrow {... */\n  dataSize(sub_0)\n  dup1\n  dataOffset(sub_0)\n  0x00\n  codecopy\n  0x00\n  return\nstop\n\nsub_0: assembly {\n        /* \"test1.sol\":56:1721  contract Escrow {... */\n      mstore(0x40, 0x80)\n      jumpi(tag_1, lt(calldatasize, 0x04))\n      shr(0xe0, calldataload(0x00))\n      dup1\n      0x08551a53\n      eq\n      tag_2\n      jumpi\n      dup1\n      0x0c3f6acf\n      eq\n      tag_3\n      jumpi\n      dup1\n      0x5e10177b\n      eq\n      tag_4\n      jumpi\n      dup1\n      0x7150d8ae\n      eq\n      tag_5\n      jumpi\n      dup1\n      0xd0e30db0\n      eq\n      tag_6\n      jumpi\n    tag_1:\n      0x00\n      dup1\n      revert\n        /* \"test1.sol\":206:235  address payable public seller */\n    tag_2:\n      callvalue\n      dup1\n      iszero\n      tag_7\n      jumpi\n      0x00\n      dup1\n      revert\n    tag_7:\n      pop\n      tag_8\n      tag_9\n      jump\t// in\n    tag_8:\n      mload(0x40)\n      dup1\n      dup3\n      0xffffffffffffffffffffffffffffffffffffffff\n      and\n      dup2\n      mstore\n      0x20\n      add\n      swap2\n      pop\n      pop\n      mload(0x40)\n      dup1\n      swap2\n      sub\n      swap1\n      return\n        /* \"test1.sol\":148:173  State public currentState */\n    tag_3:\n      callvalue\n      dup1\n      iszero\n      tag_10\n      jumpi\n      0x00\n      dup1\n      revert\n    tag_10:\n      pop\n      tag_11\n      tag_12\n      jump\t// in\n    tag_11:\n      mload(0x40)\n      dup1\n      dup3\n      0x02\n      dup2\n      gt\n      iszero\n      tag_13\n      jumpi\n      invalid\n    tag_13:\n      dup2\n      mstore\n      0x20\n      add\n      swap2\n      pop\n      pop\n      mload(0x40)\n      dup1\n      swap2\n      sub\n      swap1\n      return\n        /* \"test1.sol\":1168:1719  function confirmDelivery() external {... */\n    tag_4:\n      callvalue\n      dup1\n      iszero\n      tag_14\n      jumpi\n      0x00\n      dup1\n      revert\n    tag_14:\n      pop\n      tag_15\n      tag_16\n      jump\t// in\n    tag_15:\n      stop\n        /* \"test1.sol\":180:200  address public buyer */\n    tag_5:\n      callvalue\n      dup1\n      iszero\n      tag_17\n      jumpi\n      0x00\n      dup1\n      revert\n    tag_17:\n      pop\n      tag_18\n      tag_19\n      jump\t// in\n    tag_18:\n      mload(0x40)\n      dup1\n      dup3\n      0xffffffffffffffffffffffffffffffffffffffff\n      and\n      dup2\n      mstore\n      0x20\n      add\n      swap2\n      pop\n      pop\n      mload(0x40)\n      dup1\n      swap2\n      sub\n      swap1\n      return\n        /* \"test1.sol\":721:1093  function deposit() onlyBuyer external payable  {... */\n    tag_6:\n      tag_20\n      tag_21\n      jump\t// in\n    tag_20:\n      stop\n        /* \"test1.sol\":206:235  address payable public seller */\n    tag_9:\n      0x01\n      0x00\n      swap1\n      sload\n      swap1\n      0x0100\n      exp\n      swap1\n      div\n      0xffffffffffffffffffffffffffffffffffffffff\n      and\n      dup2\n      jump\t// out\n        /* \"test1.sol\":148:173  State public currentState */\n    tag_12:\n      0x00\n      dup1\n      sload\n      swap1\n      0x0100\n      exp\n      swap1\n      div\n      0xff\n      and\n      dup2\n      jump\t// out\n        /* \"test1.sol\":1168:1719  function confirmDelivery() external {... */\n    tag_16:\n        /* \"test1.sol\":1236:1262  State.WAITING_FOR_DELIVERY */\n      0x01\n        /* \"test1.sol\":1222:1262  currentState==State.WAITING_FOR_DELIVERY */\n      0x02\n      dup2\n      gt\n      iszero\n      tag_23\n      jumpi\n      invalid\n    tag_23:\n        /* \"test1.sol\":1222:1234  currentState */\n      0x00\n      dup1\n      sload\n      swap1\n      0x0100\n      exp\n      swap1\n      div\n      0xff\n      and\n        /* \"test1.sol\":1222:1262  currentState==State.WAITING_FOR_DELIVERY */\n      0x02\n      dup2\n      gt\n      iszero\n      tag_24\n      jumpi\n      invalid\n    tag_24:\n      eq\n        /* \"test1.sol\":1214:1303  require(currentState==State.WAITING_FOR_DELIVERY, \"Delivery has not been confirmed yet!\") */\n      tag_25\n      jumpi\n      mload(0x40)\n      0x08c379a000000000000000000000000000000000000000000000000000000000\n      dup2\n      mstore\n      0x04\n      add\n      dup1\n      dup1\n      0x20\n      add\n      dup3\n      dup2\n      sub\n      dup3\n      mstore\n      0x24\n      dup2\n      mstore\n      0x20\n      add\n      dup1\n      data_39b260daf3df1dfb4c3331cb7d6f227bde2d8270b4d1a3b6c9b7a4ecfc75d87d\n      0x24\n      swap2\n      codecopy\n      0x40\n      add\n      swap2\n      pop\n      pop\n      mload(0x40)\n      dup1\n      swap2\n      sub\n      swap1\n      revert\n    tag_25:\n        /* \"test1.sol\":1410:1416  seller */\n      0x01\n      0x00\n      swap1\n      sload\n      swap1\n      0x0100\n      exp\n      swap1\n      div\n      0xffffffffffffffffffffffffffffffffffffffff\n      and\n        /* \"test1.sol\":1410:1425  seller.transfer */\n      0xffffffffffffffffffffffffffffffffffffffff\n      and\n        /* \"test1.sol\":1410:1448  seller.transfer(address(this).balance) */\n      0x08fc\n        /* \"test1.sol\":1426:1447  address(this).balance */\n      selfbalance\n        /* \"test1.sol\":1410:1448  seller.transfer(address(this).balance) */\n      swap1\n      dup2\n      iszero\n      mul\n      swap1\n      mload(0x40)\n      0x00\n      mload(0x40)\n      dup1\n      dup4\n      sub\n      dup2\n      dup6\n      dup9\n      dup9\n      call\n      swap4\n      pop\n      pop\n      pop\n      pop\n      iszero\n      dup1\n      iszero\n      tag_27\n      jumpi\n      returndatasize\n      0x00\n      dup1\n      returndatacopy\n      revert(0x00, returndatasize)\n    tag_27:\n      pop\n        /* \"test1.sol\":1556:1570  State.COMPLETE */\n      0x02\n        /* \"test1.sol\":1541:1553  currentState */\n      0x00\n      dup1\n        /* \"test1.sol\":1541:1570  currentState = State.COMPLETE */\n      0x0100\n      exp\n      dup2\n      sload\n      dup2\n      0xff\n      mul\n      not\n      and\n      swap1\n      dup4\n      0x02\n      dup2\n      gt\n      iszero\n      tag_28\n      jumpi\n      invalid\n    tag_28:\n      mul\n      or\n      swap1\n      sstore\n      pop\n        /* \"test1.sol\":1168:1719  function confirmDelivery() external {... */\n      jump\t// out\n        /* \"test1.sol\":180:200  address public buyer */\n    tag_19:\n      0x00\n      0x01\n      swap1\n      sload\n      swap1\n      0x0100\n      exp\n      swap1\n      div\n      0xffffffffffffffffffffffffffffffffffffffff\n      and\n      dup2\n      jump\t// out\n        /* \"test1.sol\":721:1093  function deposit() onlyBuyer external payable  {... */\n    tag_21:\n        /* \"test1.sol\":358:363  buyer */\n      0x00\n      0x01\n      swap1\n      sload\n      swap1\n      0x0100\n      exp\n      swap1\n      div\n      0xffffffffffffffffffffffffffffffffffffffff\n      and\n        /* \"test1.sol\":344:363  msg.sender == buyer */\n      0xffffffffffffffffffffffffffffffffffffffff\n      and\n        /* \"test1.sol\":344:354  msg.sender */\n      caller\n        /* \"test1.sol\":344:363  msg.sender == buyer */\n      0xffffffffffffffffffffffffffffffffffffffff\n      and\n      eq\n        /* \"test1.sol\":336:404  require(msg.sender == buyer, \"only the buyer and call the function\") */\n      tag_30\n      jumpi\n      mload(0x40)\n      0x08c379a000000000000000000000000000000000000000000000000000000000\n      dup2\n      mstore\n      0x04\n      add\n      dup1\n      dup1\n      0x20\n      add\n      dup3\n      dup2\n      sub\n      dup3\n      mstore\n      0x24\n      dup2\n      mstore\n      0x20\n      add\n      dup1\n      data_3f12514fbf90d6b8f49dbc6d78f8f3af15454d380a9463c9ba375b5e91a7265e\n      0x24\n      swap2\n      codecopy\n      0x40\n      add\n      swap2\n      pop\n      pop\n      mload(0x40)\n      dup1\n      swap2\n      sub\n      swap1\n      revert\n    tag_30:\n        /* \"test1.sol\":802:827  State.WAITING_FOR_PAYMENT */\n      0x00\n        /* \"test1.sol\":786:827  currentState == State.WAITING_FOR_PAYMENT */\n      0x02\n      dup2\n      gt\n      iszero\n      tag_32\n      jumpi\n      invalid\n    tag_32:\n        /* \"test1.sol\":786:798  currentState */\n      0x00\n      dup1\n      sload\n      swap1\n      0x0100\n      exp\n      swap1\n      div\n      0xff\n      and\n        /* \"test1.sol\":786:827  currentState == State.WAITING_FOR_PAYMENT */\n      0x02\n      dup2\n      gt\n      iszero\n      tag_33\n      jumpi\n      invalid\n    tag_33:\n      eq\n        /* \"test1.sol\":778:884  require(currentState == State.WAITING_FOR_PAYMENT, \"Buyer has already deposited Ether into the contract!\") */\n      tag_34\n      jumpi\n      mload(0x40)\n      0x08c379a000000000000000000000000000000000000000000000000000000000\n      dup2\n      mstore\n      0x04\n      add\n      dup1\n      dup1\n      0x20\n      add\n      dup3\n      dup2\n      sub\n      dup3\n      mstore\n      0x34\n      dup2\n      mstore\n      0x20\n      add\n      dup1\n      data_3a83974abf75192ec3333690d28118352387733ea638fdf38a739b74637a9e1a\n      0x34\n      swap2\n      codecopy\n      0x40\n      add\n      swap2\n      pop\n      pop\n      mload(0x40)\n      dup1\n      swap2\n      sub\n      swap1\n      revert\n    tag_34:\n        /* \"test1.sol\":1051:1077  State.WAITING_FOR_DELIVERY */\n      0x01\n        /* \"test1.sol\":1036:1048  currentState */\n      0x00\n      dup1\n        /* \"test1.sol\":1036:1077  currentState = State.WAITING_FOR_DELIVERY */\n      0x0100\n      exp\n      dup2\n      sload\n      dup2\n      0xff\n      mul\n      not\n      and\n      swap1\n      dup4\n      0x02\n      dup2\n      gt\n      iszero\n      tag_35\n      jumpi\n      invalid\n    tag_35:\n      mul\n      or\n      swap1\n      sstore\n      pop\n        /* \"test1.sol\":721:1093  function deposit() onlyBuyer external payable  {... */\n      jump\t// out\n    stop\n    data_39b260daf3df1dfb4c3331cb7d6f227bde2d8270b4d1a3b6c9b7a4ecfc75d87d 44656c697665727920686173206e6f74206265656e20636f6e6669726d65642079657421\n    data_3a83974abf75192ec3333690d28118352387733ea638fdf38a739b74637a9e1a 42757965722068617320616c7265616479206465706f736974656420457468657220696e746f2074686520636f6e747261637421\n    data_3f12514fbf90d6b8f49dbc6d78f8f3af15454d380a9463c9ba375b5e91a7265e 6f6e6c792074686520627579657220616e642063616c6c207468652066756e6374696f6e\n\n    auxdata: 0xa264697066735822122049689b1f519de6a7ab112fc0145f9b824c61385e9eb72d24ce7ff99a8ff566d364736f6c634300060c0033\n}\n",
				"bytecode": {
					"linkReferences": {},
					"object": "608060405234801561001057600080fd5b506040516105693803806105698339818101604052604081101561003357600080fd5b81019080805190602001909291908051906020019092919050505081600060016101000a81548173ffffffffffffffffffffffffffffffffffffffff021916908373ffffffffffffffffffffffffffffffffffffffff16021790555080600160006101000a81548173ffffffffffffffffffffffffffffffffffffffff021916908373ffffffffffffffffffffffffffffffffffffffff1602179055505050610488806100e16000396000f3fe60806040526004361061004a5760003560e01c806308551a531461004f5780630c3f6acf146100905780635e10177b146100c65780637150d8ae146100dd578063d0e30db01461011e575b600080fd5b34801561005b57600080fd5b50610064610128565b604051808273ffffffffffffffffffffffffffffffffffffffff16815260200191505060405180910390f35b34801561009c57600080fd5b506100a561014e565b604051808260028111156100b557fe5b815260200191505060405180910390f35b3480156100d257600080fd5b506100db61015f565b005b3480156100e957600080fd5b506100f2610269565b604051808273ffffffffffffffffffffffffffffffffffffffff16815260200191505060405180910390f35b61012661028f565b005b600160009054906101000a900473ffffffffffffffffffffffffffffffffffffffff1681565b60008054906101000a900460ff1681565b6001600281111561016c57fe5b60008054906101000a900460ff16600281111561018557fe5b146101db576040517f08c379a00000000000000000000000000000000000000000000000000000000081526004018080602001828103825260248152602001806103d76024913960400191505060405180910390fd5b600160009054906101000a900473ffffffffffffffffffffffffffffffffffffffff1673ffffffffffffffffffffffffffffffffffffffff166108fc479081150290604051600060405180830381858888f19350505050158015610243573d6000803e3d6000fd5b5060026000806101000a81548160ff0219169083600281111561026257fe5b0217905550565b600060019054906101000a900473ffffffffffffffffffffffffffffffffffffffff1681565b600060019054906101000a900473ffffffffffffffffffffffffffffffffffffffff1673ffffffffffffffffffffffffffffffffffffffff163373ffffffffffffffffffffffffffffffffffffffff1614610335576040517f08c379a000000000000000000000000000000000000000000000000000000000815260040180806020018281038252602481526020018061042f6024913960400191505060405180910390fd5b6000600281111561034257fe5b60008054906101000a900460ff16600281111561035b57fe5b146103b1576040517f08c379a00000000000000000000000000000000000000000000000000000000081526004018080602001828103825260348152602001806103fb6034913960400191505060405180910390fd5b60016000806101000a81548160ff021916908360028111156103cf57fe5b021790555056fe44656c697665727920686173206e6f74206265656e20636f6e6669726d6564207965742142757965722068617320616c7265616479206465706f736974656420457468657220696e746f2074686520636f6e7472616374216f6e6c792074686520627579657220616e642063616c6c207468652066756e6374696f6ea264697066735822122049689b1f519de6a7ab112fc0145f9b824c61385e9eb72d24ce7ff99a8ff566d364736f6c634300060c0033",
					"opcodes": "PUSH1 0x80 PUSH1 0x40 MSTORE CALLVALUE DUP1 ISZERO PUSH2 0x10 JUMPI PUSH1 0x0 DUP1 REVERT JUMPDEST POP PUSH1 0x40 MLOAD PUSH2 0x569 CODESIZE SUB DUP1 PUSH2 0x569 DUP4 CODECOPY DUP2 DUP2 ADD PUSH1 0x40 MSTORE PUSH1 0x40 DUP2 LT ISZERO PUSH2 0x33 JUMPI PUSH1 0x0 DUP1 REVERT JUMPDEST DUP2 ADD SWAP1 DUP1 DUP1 MLOAD SWAP1 PUSH1 0x20 ADD SWAP1 SWAP3 SWAP2 SWAP1 DUP1 MLOAD SWAP1 PUSH1 0x20 ADD SWAP1 SWAP3 SWAP2 SWAP1 POP POP POP DUP2 PUSH1 0x0 PUSH1 0x1 PUSH2 0x100 EXP DUP2 SLOAD DUP2 PUSH20 0xFFFFFFFFFFFFFFFFFFFFFFFFFFFFFFFFFFFFFFFF MUL NOT AND SWAP1 DUP4 PUSH20 0xFFFFFFFFFFFFFFFFFFFFFFFFFFFFFFFFFFFFFFFF AND MUL OR SWAP1 SSTORE POP DUP1 PUSH1 0x1 PUSH1 0x0 PUSH2 0x100 EXP DUP2 SLOAD DUP2 PUSH20 0xFFFFFFFFFFFFFFFFFFFFFFFFFFFFFFFFFFFFFFFF MUL NOT AND SWAP1 DUP4 PUSH20 0xFFFFFFFFFFFFFFFFFFFFFFFFFFFFFFFFFFFFFFFF AND MUL OR SWAP1 SSTORE POP POP POP PUSH2 0x488 DUP1 PUSH2 0xE1 PUSH1 0x0 CODECOPY PUSH1 0x0 RETURN INVALID PUSH1 0x80 PUSH1 0x40 MSTORE PUSH1 0x4 CALLDATASIZE LT PUSH2 0x4A JUMPI PUSH1 0x0 CALLDATALOAD PUSH1 0xE0 SHR DUP1 PUSH4 0x8551A53 EQ PUSH2 0x4F JUMPI DUP1 PUSH4 0xC3F6ACF EQ PUSH2 0x90 JUMPI DUP1 PUSH4 0x5E10177B EQ PUSH2 0xC6 JUMPI DUP1 PUSH4 0x7150D8AE EQ PUSH2 0xDD JUMPI DUP1 PUSH4 0xD0E30DB0 EQ PUSH2 0x11E JUMPI JUMPDEST PUSH1 0x0 DUP1 REVERT JUMPDEST CALLVALUE DUP1 ISZERO PUSH2 0x5B JUMPI PUSH1 0x0 DUP1 REVERT JUMPDEST POP PUSH2 0x64 PUSH2 0x128 JUMP JUMPDEST PUSH1 0x40 MLOAD DUP1 DUP3 PUSH20 0xFFFFFFFFFFFFFFFFFFFFFFFFFFFFFFFFFFFFFFFF AND DUP2 MSTORE PUSH1 0x20 ADD SWAP2 POP POP PUSH1 0x40 MLOAD DUP1 SWAP2 SUB SWAP1 RETURN JUMPDEST CALLVALUE DUP1 ISZERO PUSH2 0x9C JUMPI PUSH1 0x0 DUP1 REVERT JUMPDEST POP PUSH2 0xA5 PUSH2 0x14E JUMP JUMPDEST PUSH1 0x40 MLOAD DUP1 DUP3 PUSH1 0x2 DUP2 GT ISZERO PUSH2 0xB5 JUMPI INVALID JUMPDEST DUP2 MSTORE PUSH1 0x20 ADD SWAP2 POP POP PUSH1 0x40 MLOAD DUP1 SWAP2 SUB SWAP1 RETURN JUMPDEST CALLVALUE DUP1 ISZERO PUSH2 0xD2 JUMPI PUSH1 0x0 DUP1 REVERT JUMPDEST POP PUSH2 0xDB PUSH2 0x15F JUMP JUMPDEST STOP JUMPDEST CALLVALUE DUP1 ISZERO PUSH2 0xE9 JUMPI PUSH1 0x0 DUP1 REVERT JUMPDEST POP PUSH2 0xF2 PUSH2 0x269 JUMP JUMPDEST PUSH1 0x40 MLOAD DUP1 DUP3 PUSH20 0xFFFFFFFFFFFFFFFFFFFFFFFFFFFFFFFFFFFFFFFF AND DUP2 MSTORE PUSH1 0x20 ADD SWAP2 POP POP PUSH1 0x40 MLOAD DUP1 SWAP2 SUB SWAP1 RETURN JUMPDEST PUSH2 0x126 PUSH2 0x28F JUMP JUMPDEST STOP JUMPDEST PUSH1 0x1 PUSH1 0x0 SWAP1 SLOAD SWAP1 PUSH2 0x100 EXP SWAP1 DIV PUSH20 0xFFFFFFFFFFFFFFFFFFFFFFFFFFFFFFFFFFFFFFFF AND DUP2 JUMP JUMPDEST PUSH1 0x0 DUP1 SLOAD SWAP1 PUSH2 0x100 EXP SWAP1 DIV PUSH1 0xFF AND DUP2 JUMP JUMPDEST PUSH1 0x1 PUSH1 0x2 DUP2 GT ISZERO PUSH2 0x16C JUMPI INVALID JUMPDEST PUSH1 0x0 DUP1 SLOAD SWAP1 PUSH2 0x100 EXP SWAP1 DIV PUSH1 0xFF AND PUSH1 0x2 DUP2 GT ISZERO PUSH2 0x185 JUMPI INVALID JUMPDEST EQ PUSH2 0x1DB JUMPI PUSH1 0x40 MLOAD PUSH32 0x8C379A000000000000000000000000000000000000000000000000000000000 DUP2 MSTORE PUSH1 0x4 ADD DUP1 DUP1 PUSH1 0x20 ADD DUP3 DUP2 SUB DUP3 MSTORE PUSH1 0x24 DUP2 MSTORE PUSH1 0x20 ADD DUP1 PUSH2 0x3D7 PUSH1 0x24 SWAP2 CODECOPY PUSH1 0x40 ADD SWAP2 POP POP PUSH1 0x40 MLOAD DUP1 SWAP2 SUB SWAP1 REVERT JUMPDEST PUSH1 0x1 PUSH1 0x0 SWAP1 SLOAD SWAP1 PUSH2 0x100 EXP SWAP1 DIV PUSH20 0xFFFFFFFFFFFFFFFFFFFFFFFFFFFFFFFFFFFFFFFF AND PUSH20 0xFFFFFFFFFFFFFFFFFFFFFFFFFFFFFFFFFFFFFFFF AND PUSH2 0x8FC SELFBALANCE SWAP1 DUP2 ISZERO MUL SWAP1 PUSH1 0x40 MLOAD PUSH1 0x0 PUSH1 0x40 MLOAD DUP1 DUP4 SUB DUP2 DUP6 DUP9 DUP9 CALL SWAP4 POP POP POP POP ISZERO DUP1 ISZERO PUSH2 0x243 JUMPI RETURNDATASIZE PUSH1 0x0 DUP1 RETURNDATACOPY RETURNDATASIZE PUSH1 0x0 REVERT JUMPDEST POP PUSH1 0x2 PUSH1 0x0 DUP1 PUSH2 0x100 EXP DUP2 SLOAD DUP2 PUSH1 0xFF MUL NOT AND SWAP1 DUP4 PUSH1 0x2 DUP2 GT ISZERO PUSH2 0x262 JUMPI INVALID JUMPDEST MUL OR SWAP1 SSTORE POP JUMP JUMPDEST PUSH1 0x0 PUSH1 0x1 SWAP1 SLOAD SWAP1 PUSH2 0x100 EXP SWAP1 DIV PUSH20 0xFFFFFFFFFFFFFFFFFFFFFFFFFFFFFFFFFFFFFFFF AND DUP2 JUMP JUMPDEST PUSH1 0x0 PUSH1 0x1 SWAP1 SLOAD SWAP1 PUSH2 0x100 EXP SWAP1 DIV PUSH20 0xFFFFFFFFFFFFFFFFFFFFFFFFFFFFFFFFFFFFFFFF AND PUSH20 0xFFFFFFFFFFFFFFFFFFFFFFFFFFFFFFFFFFFFFFFF AND CALLER PUSH20 0xFFFFFFFFFFFFFFFFFFFFFFFFFFFFFFFFFFFFFFFF AND EQ PUSH2 0x335 JUMPI PUSH1 0x40 MLOAD PUSH32 0x8C379A000000000000000000000000000000000000000000000000000000000 DUP2 MSTORE PUSH1 0x4 ADD DUP1 DUP1 PUSH1 0x20 ADD DUP3 DUP2 SUB DUP3 MSTORE PUSH1 0x24 DUP2 MSTORE PUSH1 0x20 ADD DUP1 PUSH2 0x42F PUSH1 0x24 SWAP2 CODECOPY PUSH1 0x40 ADD SWAP2 POP POP PUSH1 0x40 MLOAD DUP1 SWAP2 SUB SWAP1 REVERT JUMPDEST PUSH1 0x0 PUSH1 0x2 DUP2 GT ISZERO PUSH2 0x342 JUMPI INVALID JUMPDEST PUSH1 0x0 DUP1 SLOAD SWAP1 PUSH2 0x100 EXP SWAP1 DIV PUSH1 0xFF AND PUSH1 0x2 DUP2 GT ISZERO PUSH2 0x35B JUMPI INVALID JUMPDEST EQ PUSH2 0x3B1 JUMPI PUSH1 0x40 MLOAD PUSH32 0x8C379A000000000000000000000000000000000000000000000000000000000 DUP2 MSTORE PUSH1 0x4 ADD DUP1 DUP1 PUSH1 0x20 ADD DUP3 DUP2 SUB DUP3 MSTORE PUSH1 0x34 DUP2 MSTORE PUSH1 0x20 ADD DUP1 PUSH2 0x3FB PUSH1 0x34 SWAP2 CODECOPY PUSH1 0x40 ADD SWAP2 POP POP PUSH1 0x40 MLOAD DUP1 SWAP2 SUB SWAP1 REVERT JUMPDEST PUSH1 0x1 PUSH1 0x0 DUP1 PUSH2 0x100 EXP DUP2 SLOAD DUP2 PUSH1 0xFF MUL NOT AND SWAP1 DUP4 PUSH1 0x2 DUP2 GT ISZERO PUSH2 0x3CF JUMPI INVALID JUMPDEST MUL OR SWAP1 SSTORE POP JUMP INVALID DIFFICULTY PUSH6 0x6C6976657279 KECCAK256 PUSH9 0x6173206E6F74206265 PUSH6 0x6E20636F6E66 PUSH10 0x726D6564207965742142 PUSH22 0x7965722068617320616C7265616479206465706F7369 PUSH21 0x656420457468657220696E746F2074686520636F6E PUSH21 0x72616374216F6E6C79207468652062757965722061 PUSH15 0x642063616C6C207468652066756E63 PUSH21 0x696F6EA264697066735822122049689B1F519DE6A7 0xAB GT 0x2F 0xC0 EQ 0x5F SWAP12 DUP3 0x4C PUSH2 0x385E SWAP15 0xB7 0x2D 0x24 0xCE PUSH32 0xF99A8FF566D364736F6C634300060C0033000000000000000000000000000000 "
				},
				"gasEstimates": {
					"creation": {
						"codeDepositCost": "232000",
						"executionCost": "infinite",
						"totalCost": "infinite"
					},
					"external": {
						"buyer()": "1141",
						"confirmDelivery()": "infinite",
						"currentState()": "1064",
						"deposit()": "infinite",
						"seller()": "1025"
					}
				},
				"methodIdentifiers": {
					"buyer()": "7150d8ae",
					"confirmDelivery()": "5e10177b",
					"currentState()": "0c3f6acf",
					"deposit()": "d0e30db0",
					"seller()": "08551a53"
				}
			},
			"storageLayout": {
				"storage": [
					{
						"astId": 7,
						"contract": "test1.sol:Escrow",
						"label": "currentState",
						"offset": 0,
						"slot": "0",
						"type": "t_enum(State)5"
					},
					{
						"astId": 9,
						"contract": "test1.sol:Escrow",
						"label": "buyer",
						"offset": 1,
						"slot": "0",
						"type": "t_address"
					},
					{
						"astId": 11,
						"contract": "test1.sol:Escrow",
						"label": "seller",
						"offset": 0,
						"slot": "1",
						"type": "t_address_payable"
					}
				],
				"types": {
					"t_address": {
						"encoding": "inplace",
						"label": "address",
						"numberOfBytes": "20"
					},
					"t_address_payable": {
						"encoding": "inplace",
						"label": "address payable",
						"numberOfBytes": "20"
					},
					"t_enum(State)5": {
						"encoding": "inplace",
						"label": "enum Escrow.State",
						"numberOfBytes": "1"
					}
				}
			},
			"userdoc": {
				"kind": "user",
				"methods": {},
				"version": 1
			}
		}
	}
}